:100000000C946F010C9497010C9497010C94970138
:100010000C9497010C9497010C9497010C94970100
:100020000C9497010C9497010C947D110C944B1037
:100030000C9497010C9497010C9497010C949701E0
:100040000C9497010C943E0C0C9497010C9497011E
:100050000C9497010C9497010C9497010C94F10463
:100060000C9497010C9422140C945E140C94970138
:100070000C9497010C9497010C9497010C949701A0
:100080000C94680C0C9497010C9497010C949701B4
:100090000C9497010C9497010C9497010C94970180
:1000A0000C9497010C9497010C9497010706050492
:1000B0000100080A0B0C0D090000000200080E00E8
:1000C00000030401000B00000408020110408040FE
:1000D000102040804080080204018040201002016E
:1000E00010801020404004040404040304050202AC
:1000F00002020403020202020606060606060404C1
:1001000002020204000000002300260029002C0047
:100110002F0000000000250028002B002E003100D9
:1001200000000000240027002A002D003000080BEA
:1001300000020202010009040000010202000005A1
:1001400024001001052401010104240206052406EF
:1001500000010705810310004009040100020A00A4
:10016000000007050202400000070583024000006E
:1001700000C18081C112010002020000404123360B
:100180008000010102000112010002000000404154
:10019000233680000101020001180341007200644F
:1001A00000750069006E006F0020004C004C004399
:1001B000002203410072006400750069006E006F48
:1001C0000020004C0065006F006E0061007200644A
:1001D000006F000403090400000000000000002A72
:1001E0002B280000000000000000000000000000BC
:1001F000000000000000002C9EB4A0A1A2A434A620
:10020000A7A5AE362D3738271E1F202122232425EF
:1002100026B333B62EB7B89F8485868788898A8BA4
:100220008C8D8E8F909192939495969798999A9B96
:100230009C9D2F3130A3AD350405060708090A0B34
:100240000C0D0E0F101112131415161718191A1B76
:100250001C1DAFB1B0B5000904020001030000008D
:100260000921010100012265000705840340000106
:1002700005010902A1010901A10085010509190172
:100280002903150025019503750181029501750566
:10029000810305010930093109381581257F750869
:1002A00095038106C0C005010906A1018502050765
:1002B00019E029E7150025017501950881029501CE
:1002C0007508810395067508150025650507190051
:1002D00029658100C000DC04040A321319151124B9
:1002E0001FBECFEFDAE0DEBFCDBF12E0A0E0B1E08D
:1002F000EAECFBE202C005900D92AA3DB107D9F7E6
:1003000014E0AAEDB2E001C01D92AF38B107E1F7E9
:1003100012E0CEEDD2E004C02297FE010E94DF156C
:10032000C63DD107C9F70E94FC080C9469150C94CE
:100330000000CF9360E875E285E393E00E94030A32
:1003400040E855E260E070E088E293E00E94430AF2
:1003500088E293E00E94290A6DE071E088E293E070
:100360000E94A60A60E070E088E293E00E944C0BD5
:1003700060E070E088E293E00E94200B62E070E0B1
:1003800088E293E00E94EE0A61E070E088E293E088
:100390000E94C30A88E293E00E94390AC2E061E049
:1003A0008C2F0E944407CF5FCE30C9F7C2E060E0D7
:1003B0008C2F0E947C07CF5FCE30C9F760E082E1CE
:1003C0000E94440760E083E10E94440760E084E10A
:1003D0000E94440760E085E10E94440760E086E1F6
:1003E0000E94440760E087E1CF910C94440782E1CA
:1003F0000E94FD05909309038093080383E10E9406
:10040000FD05909307038093060384E10E94FD0598
:10041000909305038093040385E10E94FD0590936A
:1004200003038093020386E10E94FD05909301037C
:100430008093000387E10E94FD059093FF02809363
:10044000FE0261E171E088E293E00E94770A609128
:100450000803709109034AE050E088E293E00E94AB
:100460008F0A6091000170910101882777FD8095C6
:10047000982F0E94770565E171E088E293E00E9481
:10048000770A60910603709107034AE050E088E222
:1004900093E00E948F0A609100017091010188270A
:1004A00077FD8095982F0E94770569E171E088E2D9
:1004B00093E00E94770A60910403709105034AE07B
:1004C00050E088E293E00E948F0A609100017091F1
:1004D0000101882777FD8095982F0E9477056DE1AF
:1004E00071E088E293E00E94770A609102037091C4
:1004F00003034AE050E088E293E00E948F0A609193
:10050000000170910101882777FD8095982F0E9446
:10051000770561E271E088E293E00E94770A6091DA
:100520000003709101034AE050E088E293E00E94EA
:100530008F0A6091000170910101882777FD8095F5
:10054000982F0E94770565E271E088E293E00E94AF
:10055000770A6091FE027091FF024AE050E088E263
:1005600093E00E948F0A6091000170910101882739
:1005700077FD8095982F0C94770582E00E94B30751
:10058000909321038093200383E00E94B30790930C
:100590001F0380931E0384E00E94B30790931D0302
:1005A00080931C0385E00E94B30790931B03809304
:1005B0001A0386E00E94B3079093190380931803EF
:1005C00087E00E94B307909317038093160388E097
:1005D0000E94B307909315038093140389E00E944F
:1005E000B30790931303809312038AE00E94B3072A
:1005F00090931103809310038BE00E94B3079093B4
:100600000F0380930E038CE00E94B30790930D03B9
:1006100080930C038DE00E94B30790930B038093AB
:100620000A0369E271E088E293E00E94770A609130
:100630002003709121034AE050E088E293E00E9499
:100640008F0A6091000170910101882777FD8095E4
:10065000982F0E9477056DE271E088E293E00E9496
:10066000770A60911E0370911F034AE050E088E210
:1006700093E00E948F0A6091000170910101882728
:1006800077FD8095982F0E94770561E371E088E2FD
:1006900093E00E94770A60911C0370911D034AE069
:1006A00050E088E293E00E948F0A6091000170910F
:1006B0000101882777FD8095982F0E94770565E3D3
:1006C00071E088E293E00E94770A60911A037091CA
:1006D0001B034AE050E088E293E00E948F0A609199
:1006E000000170910101882777FD8095982F0E9465
:1006F000770569E371E088E293E00E94770A6091F0
:100700001803709119034AE050E088E293E00E94D8
:100710008F0A6091000170910101882777FD809513
:10072000982F0E9477056DE371E088E293E00E94C4
:10073000770A60911603709117034AE050E088E24F
:1007400093E00E948F0A6091000170910101882757
:1007500077FD8095982F0E94770561E471E088E22B
:1007600093E00E94770A60911403709115034AE0A8
:1007700050E088E293E00E948F0A6091000170913E
:100780000101882777FD8095982F0E94770565E401
:1007900071E088E293E00E94770A60911203709101
:1007A00013034AE050E088E293E00E948F0A6091D0
:1007B000000170910101882777FD8095982F0E9494
:1007C000770569E471E088E293E00E94770A60911E
:1007D0001003709111034AE050E088E293E00E9418
:1007E0008F0A6091000170910101882777FD809543
:1007F000982F0E9477056EE471E088E293E00E94F2
:10080000770A60910E0370910F034AE050E088E28E
:1008100093E00E948F0A6091000170910101882786
:1008200077FD8095982F0E94770563E571E088E257
:1008300093E00E94770A60910C0370910D034AE0E7
:1008400050E088E293E00E948F0A6091000170916D
:100850000101882777FD8095982F0E94770568E52C
:1008600071E088E293E00E94770A60910A03709138
:100870000B034AE050E088E293E00E948F0A609107
:10088000000170910101882777FD8095982F0C94C5
:10089000770588E293E00E944B0A882309F48BC015
:1008A00088E293E00E945F0A9093270380932603D7
:1008B00088E293E00E945F0A9093250380932403CB
:1008C00088E293E00E945F0A9093230380932203BF
:1008D00060912603709127034AE050E085E393E09E
:1008E0000E94DA086DE571E085E393E00E94140848
:1008F00060912403709125034AE050E085E393E082
:100900000E94DA086DE571E085E393E00E94140827
:1009100060912203709123034AE050E085E393E065
:100920000E94E20888E293E00E94690A82359105FC
:1009300009F041C08091260390912703009731F47C
:1009400060912203809124030C947C0781309105EF
:1009500041F46091220370912303809124030C944D
:10096000320682309105F1F46091240370912503E1
:10097000CB01880F991F860F971F86529D4F0E94AB
:10098000400D609122037091230320912403309144
:100990002503C901880F991F820F931F86529D4F0F
:1009A0000C94790D8330910511F40C94F7010497A0
:1009B00011F40C94BD020895CF93DF938AEB92E07B
:1009C0009093290380932803CAEDD2E0CE010E94C0
:1009D000920C239682E0CE3FD807C1F7DF91CF91EA
:1009E00008951F920F920FB60F9211242F933F93E9
:1009F0008F939F93AF93BF9380912C0390912D037E
:100A0000A0912E03B0912F0330913403232F2D5F3B
:100A10002D3720F40196A11DB11D05C0232F2A57A3
:100A20000296A11DB11D2093340380932C03909353
:100A30002D03A0932E03B0932F0380913003909148
:100A40003103A0913203B09133030196A11DB11D72
:100A50008093300390933103A0933203B093330318
:100A6000BF91AF919F918F913F912F910F900FBEAA
:100A70000F901F9018950F931F938FB7F8940091C4
:100A80002C0310912D0320912E0330912F038FBF43
:100A9000B801C9011F910F9108950F931F939FB73C
:100AA000F89400913003109131032091320330917A
:100AB000330386B5A89B06C08F3F21F00F5F1F4F01
:100AC0002F4F3F4F9FBF322F212F102F0027080F8E
:100AD000111D211D311D42E0000F111F221F331F68
:100AE0004A95D1F7B801C9011F910F910895CF928E
:100AF000DF92EF92FF92CF93DF936B017C010E9414
:100B00004D05EB010EC00E944D056C1B7D0B683E30
:100B1000734038F081E0C81AD108E108F108C851E3
:100B2000DC4FC114D104E104F10469F7DF91CF91E6
:100B3000FF90EF90DF90CF900895789484B5826015
:100B400084BD84B5816084BD85B5826085BD85B571
:100B5000816085BDEEE6F0E0808181608083E1E820
:100B6000F0E0108280818260808380818160808358
:100B7000E0E8F0E0808181608083E1EBF0E080815B
:100B800084608083E0EBF0E0808181608083E1E934
:100B9000F0E0808182608083808181608083E0E9F1
:100BA000F0E0808181608083E1ECF0E0808184600E
:100BB0008083808182608083808181608083E3EC98
:100BC000F0E0808181608083E0ECF0E080818260F1
:100BD0008083E2ECF0E0808181608083EAE7F0E0EE
:100BE0008081846080838081826080838081816055
:100BF00080838081806880830895823108F08251EB
:100C0000E82FF0E0E455FF4FE49180917B00E3FB97
:100C1000222720F930E095E0220F331F9A95E1F763
:100C20008F7D822B80937B00E7708091020120E40E
:100C3000829FC0011124E82BE0937C0080917A0010
:100C4000806480937A0080917A0086FDFCCF2091A9
:100C5000780030917900932F80E0AC01422B9A010B
:100C6000C90108951F93CF93DF93182FEB0161E023
:100C70000E944407209711F460E004C0CF3FD105E3
:100C800039F461E0812FDF91CF911F910C947C07A3
:100C9000E12FF0E0E854FF4FE491E73009F449C058
:100CA00078F4E33051F130F4E130E9F0E23009F06A
:100CB00088C01EC0E43059F1E63009F082C031C06E
:100CC000EA3009F452C030F4E830D9F1E93009F0E3
:100CD00078C041C0EC3009F45FC008F450C0EE3079
:100CE00009F06FC061C084B5806884BDC7BD6EC0A7
:100CF00084B5806284BDC8BD69C080918000806871
:100D000080938000D0938900C09388005FC0809159
:100D10008000806280938000D0938B00C0938A0013
:100D200055C08091B00080688093B000C093B3003C
:100D30004DC08091B00080628093B000C093B40039
:100D400045C080919000806880939000D093990076
:100D5000C09398003BC08091900080628093900087
:100D6000D0939B00C0939A0031C08091900088601E
:100D700080939000D0939D00C0939C0027C08091E9
:100D8000C00080688093C0008091C0008F7B8093FA
:100D9000C000C093CF001AC08091C00080628093D1
:100DA000C000C093D00012C08091C20088608093C0
:100DB000C2008091C2008B7F8093C200C093D2009A
:100DC00005C0C038D1050CF05CCF56CFDF91CF9174
:100DD0001F9108958730A1F178F48330E1F030F469
:100DE000813019F1823009F04EC022C08430B9F050
:100DF000863009F048C020C08A3081F130F4883054
:100E000029F1893009F03FC025C08C3089F160F1AB
:100E10008E30C9F533C0809180008F7703C08091F8
:100E200080008F7D80938000089584B58F7702C005
:100E300084B58F7D84BD08958091B0008F7703C005
:100E40008091B0008F7D8093B000089580919000D4
:100E50008F7707C0809190008F7D03C080919000B4
:100E6000877F8093900008958091C0008F7703C0A2
:100E70008091C0008F7D8093C00008958091C20052
:100E8000877F8093C2000895CF93DF9390E0FC01A9
:100E9000E853FF4F4491FC01EA51FF4F84918823AE
:100EA00041F190E0880F991FFC01E05EFE4F259113
:100EB0003491D9018E5E9E4FFC0185919491C82F8B
:100EC000D92F9FB7F8948C91611106C04095842367
:100ED0008C938881842308C0623041F4242F2095AC
:100EE00082238C938881842B888302C0842B8C93EB
:100EF0009FBFDF91CF9108950F931F93CF93DF93FF
:100F00001F92CDB7DEB7282F30E0F901E854FF4F2C
:100F10008491F901E853FF4F1491F901EA51FF4F11
:100F200004910023D1F0882321F069830E94EA060E
:100F30006981E02FF0E0EE0FFF1FEE5EFE4F85911E
:100F40009491DC019FB7F8948C91611103C01095C6
:100F5000812301C0812B8C939FBF0F90DF91CF9194
:100F60001F910F910895CF93DF93282F30E0F9015F
:100F7000E854FF4F8491F901E853FF4FD491F901F0
:100F8000EA51FF4FC491CC2389F081110E94EA06F7
:100F9000EC2FF0E0EE0FFF1FEC5FFE4F8591949178
:100FA000DC018C918D2321E030E011F420E030E071
:100FB000C901DF91CF910895CF92DF92EF92FF9216
:100FC0000F931F93CF93DF936C01EB017A01E60E31
:100FD000F71E00E010E00BC06991D601ED91FC9185
:100FE0000190F081E02DC6010995080F191FCE155B
:100FF000DF0591F7C801DF91CF911F910F91FF900D
:10100000EF90DF90CF900895DB010D900020E9F77D
:10101000AD0141505109461B570BDC01ED91FC918C
:101020000280F381E02D09940C940408DC01ED9119
:10103000FC910190F081E02D09940F931F93CF93C1
:10104000DF93EC016DE00E9416088C016AE0CE018E
:101050000E9416089C01200F311FC901DF91CF911A
:101060001F910F9108954F925F926F927F929F927E
:10107000AF92BF92CF92DF92EF92FF920F931F93A6
:10108000CF93DF93CDB7DEB7A1970FB6F894DEBF4D
:101090000FBECDBF5C016A017B01922E19A281E0D7
:1010A000821710F08AE0982E8E010F5D1F4F492C99
:1010B000512C612C712CC701B601A30192010E9431
:1010C00093158C2D929E80191124015011098A309C
:1010D00014F4805D01C0895CF801808369017A01A4
:1010E000C114D104E104F10431F7B801C5010E9433
:1010F0000408A1960FB6F894DEBF0FBECDBFDF91F6
:10110000CF911F910F91FF90EF90DF90CF90BF9004
:10111000AF909F907F906F905F904F900895CF9287
:10112000DF92EF92FF920F931F93CF93DF93EC0127
:101130006A017B012115310579F4E881F98101907B
:10114000F081E02D642FDF91CF911F910F91FF90DF
:10115000EF90DF90CF9009942A30310519F477FD94
:101160000EC02AE0B701A601CE01DF91CF911F91F9
:101170000F91FF90EF90DF90CF900C9433086DE2C9
:101180000E9416088C0144275527BA014C195D09A5
:101190006E097F092AE0CE010E943308080F191F4B
:1011A000C801DF91CF911F910F91FF90EF90DF90D9
:1011B000CF9008959A01AB01662757FD6095762F71
:1011C0000C948F080F931F93CF93DF93EC019A0138
:1011D000AB01662757FD6095762F0E948F088C0122
:1011E000CE010E941D089801280F391FC901DF9107
:1011F000CF911F910F9108950E949D0582ED93E07C
:101200000E94DD110E949901C5E5D4E10E944904C4
:101210002097E1F30E945514F9CF20918303309178
:1012200084038091850390918603281B390B2F73CB
:101230003327C9010895209183033091840380915D
:101240008503909186032817390749F0E0918503BB
:10125000F0918603ED5BFC4F208130E002C02FEF60
:101260003FEFC90108952091830330918403809159
:1012700085039091860328173907B1F0E091850323
:10128000F0918603ED5BFC4F8081209185033091C6
:1012900086032F5F3F4F2F733327309386032093AE
:1012A0008503282F30E002C02FEF3FEFC9010895DA
:1012B0000F931F93CF93DF931F92CDB7DEB78C01AF
:1012C000698380910A01882369F041E050E0BE0102
:1012D0006F5F7F4F83E00E942F0F1816190614F4DA
:1012E0009C0107C081E090E0F8019383828320E0B5
:1012F00030E0C9010F90DF91CF911F910F910895B8
:1013000083E00C94731182E00E94FD0E2091830310
:10131000309184032F5F3F4F2F7333274091850314
:10132000509186032417350759F0E0918303F0911B
:101330008403ED5BFC4F808330938403209383030D
:101340000895FC0120812E5F208342E450E06EE28C
:1013500071E080E80C94CA0FFC0181819081913A80
:1013600059F4813209F04BC047E050E063E071E08E
:1013700080E00E94CA0F45C0913209F040C080321F
:1013800039F467E070E083E091E00E941D1039C0FD
:10139000823209F034C0828180930A018091030176
:1013A00090910401A0910501B0910601803B944009
:1013B000A105B10531F580910A0180FD12C087E7D2
:1013C00097E790930108809300082BE088E190E074
:1013D0000FB6F894A895809360000FBE209360002C
:1013E00010C088E10FB6F8948093600010926000FE
:1013F0000FBEA895109201081092000802C080E06C
:10140000089581E0089508951092380310923703EB
:1014100088EE93E0A0E0B0E08093390390933A0324
:10142000A0933B03B0933C0383E691E09093360393
:1014300080933503089528EE33E0FC013383228343
:10144000E091E803F091E9030190F081E02DC901FA
:10145000099428EE33E0FC013383228361E771E0D5
:10146000C9010E94140862E370E080E090E00C94EF
:10147000770528EE33E0FC013383228364E771E0D3
:10148000C9010C94140828EE33E0FC013383228355
:10149000C9010C94991428EE33E0FC0133832283B4
:1014A000E091E803F091E9030480F581E02DC901A2
:1014B000099521E0892B09F420E0822F089528EE78
:1014C00033E0FC0133832283C9010E948C0ECB01DF
:1014D000089528EE33E0FC0133832283E091E80392
:1014E000F091E9030680F781E02DC9010994CF93BB
:1014F000DF93EC01AA81BB81EB0109900020E9F7A1
:10150000AE0141505109461B570BED91FC911197CB
:101510000280F381E02DCD01DF91CF9109940F93EB
:101520001F93CF93DF93EC018A819B810E94DA089D
:101530008C018A819B810E941D089C01200F311F14
:10154000C901DF91CF911F910F9108950F931F93C0
:10155000CF93DF93EC018B0188EE93E09B838A832A
:101560006DE771E00E941408B8018A819B810E9496
:10157000140862E370E080E090E0DF91CF911F916A
:101580000F910C9477050F931F93CF93DF93EC018A
:101590008B0188EE93E09B838A8363EE71E00E9467
:1015A00014080115110541F00130110569F44AE0F4
:1015B00050E061E070E004C04AE050E060E070E0BC
:1015C0008A819B810E94DA0862E370E080E090E00B
:1015D000DF91CF911F910F910C9477050F931F937B
:1015E000CF93DF93EC018B0188EE93E09B838A839A
:1015F0006EE172E00E9414080130110551F00230D2
:10160000110561F0012B91F44AE050E060E070E0D8
:1016100009C04AE050E061E070E004C04AE050E0F8
:1016200062E070E08A819B810E94DA0862E370E0E8
:1016300080E090E0DF91CF911F910F910C9477059E
:101640000F931F93CF93DF93EC018B0188EE93E010
:101650009B838A8366E372E00E94140801151105DA
:1016600021F00230110571F405C04AE050E060E05D
:1016700070E004C04AE050E062E070E08A819B8143
:101680000E94DA0862E370E080E090E0DF91CF91A1
:101690001F910F910C9477050F931F93CF93DF93B6
:1016A000EC018B0188EE93E09B838A836EEA72E003
:1016B0000E9414080115110541F00130110569F46B
:1016C0004AE050E061E070E004C04AE050E060E0D1
:1016D00070E08A819B810E94DA0862E370E080E01A
:1016E00090E0DF91CF911F910F910C947705EF92CD
:1016F000FF920F931F93CF93DF938B017A01EC013D
:10170000DC01A857BC4F8C9187FF05C0DB01119607
:101710001C921E9222C02CE02C9FC0012D9F900D88
:1017200011242C91AC01420F511D27FD5A95209197
:10173000870330E04217530784F42C91FC01E20F39
:10174000F11D27FDFA959F01EE0FFF1FE20FF31F1A
:10175000E657FC4F208126FD45C0FE01E857FC4FAF
:1017600080818F5F80832CE02C9FC0012D9F900D86
:1017700011242081AC01420F511D27FD5A95209163
:10178000870330E0421753070CF03EC020812C3015
:101790000CF442C039C02081820F911D27FD9A951B
:1017A000FC01EE0FFF1FE80FF91FE657FC4F808189
:1017B00061E08F73DF91CF911F910F91FF90EF90B8
:1017C0000C947C0780E49CE904C0F801808191813D
:1017D0000496D70111969C938E93C857DC4F8FEFD8
:1017E000888345C02C91820F911D27FD9A95FC019D
:1017F000EE0FFF1FE80FF91FE657FC4F808160E0F6
:101800008F730E947C07A9CFF80180819181049693
:1018100080349C49B8F2D9CFD8012D913C914081B8
:10182000BC01640F711D47FD7A95AB01DB01AA0F66
:10183000BB1FA40FB51FA657BC4F11964D915C91CD
:101840001297240F351FD70111963C932E932081B8
:10185000AC01420F511D27FD5A95DA01AA0FBB1F9B
:10186000A40FB51FA657BC4F2C9126FD94CFDF9136
:10187000CF911F910F91FF90EF9008951F920F92BB
:101880000FB60F9211242F933F934F935F936F9353
:101890007F938F939F93AF93BF93EF93FF9348E80A
:1018A00050E064E870E081E090E00E94770BFF91E7
:1018B000EF91BF91AF919F918F917F916F915F91C8
:1018C0004F913F912F910F900FBE0F901F90189541
:1018D0001F920F920FB60F9211242F933F934F93A5
:1018E0005F936F937F938F939F93AF93BF93EF9388
:1018F000FF9348E950E064E970E080E090E00E94E6
:10190000770BFF91EF91BF91AF919F918F917F9155
:101910006F915F914F913F912F910F900FBE0F905C
:101920001F901895209187032831A0F4FC01208393
:10193000822F8F5F80938703822F90E0FC01EE0F50
:10194000FF1FE80FF91FE657FC4F88EB9BE09283DF
:10195000818308952FEFFC0120830895DF92EF9299
:10196000FF920F931F93CF93DF93EC01D62E7A0152
:1019700089018881883108F074C061E08D2D0E9452
:1019800044078881A82FB0E0FD01EE0FFF1FEA0F8A
:10199000FB1FE657FC4F2D2D2F739081907C922BCF
:1019A000908360E272E06E197F0977FF02C06D5F7D
:1019B0007F4F7595679575956795698340E659E002
:1019C000401B510B57FF02C04D5F5F4F5595479528
:1019D000559547954A836CE00E9487159CE0899F46
:1019E000B001112420E030E0A901460F571FFA0191
:1019F000EE0FFF1FE40FF51FE657FC4F908196FD99
:101A000024C02F5F3F4F2C30310571F72CC010924E
:101A1000800082E080938100109285001092840003
:101A2000B19A80916F00826080936F000EC0892B05
:101A300061F41092900082E08093910010929500E2
:101A40001092940088BB80937100888190E0FC0123
:101A5000EE0FFF1FE80FF91FE657FC4F80818064EF
:101A60008083888105C090E08130910501F7CFCF58
:101A7000DF91CF911F910F91FF90EF90DF9008952C
:101A800020E639E040E252E00C94AE0CFC0180818B
:101A9000883170F5918128E830E0291B310997FDE4
:101AA0003395220F331F220F331F621773077CF009
:101AB000928128E532E0291B310997FD3395220FE9
:101AC000331F220F331F621773070CF49B014FB7AC
:101AD000F89490E0FC01EE0FFF1FE80FF91FE657A6
:101AE000FC4F22503109220F331F328321834FBF15
:101AF0000895AF92BF92CF92DF92EF92FF920F9331
:101B00001F93CF93DF93EC01603282E078070CF0F3
:101B100041C077FD04C0653B710524F405C060E059
:101B200070E002C064EB70E0298188E890E0821BDD
:101B3000910927FD9395880F991F880F991F5C01C4
:101B4000CC24B7FCC094DC2C882777FD8095982F97
:101B50002A8148E552E0421B510927FD5395440F65
:101B6000551F440F551F8A01222717FD2095322F3C
:101B70003F932F931F930F9314EBE12EF12C00E072
:101B800010E020E030E0A9010E943F130F900F9079
:101B90000F900F90CE01DF91CF911F910F91FF9089
:101BA000EF90DF90CF90BF90AF900C94460D0F93C5
:101BB0001F93CF93DF93EC010E943B0568877987E1
:101BC0008A879B87E881F9810084F185E02DCE0129
:101BD00009959C0197FF15C00E943B050885198552
:101BE0002A853B85601B710B820B930B0C811D8139
:101BF0002E813F81601771078207930718F32FEF3B
:101C00003FEFC901DF91CF911F910F910895CF93BD
:101C1000DF93EC01CE010E94D70D9C0197FD0EC011
:101C20008D32910559F0C0970A9740F0E881F9810B
:101C30000680F781E02DCE010995ECCFC901DF9137
:101C4000CF910895CF92DF92FF920F931F93CF937E
:101C5000DF9300D000D0CDB7DEB76C01062F0E9415
:101C6000070EFC0120E030E0A90197FD47C0F12CF0
:101C7000112707FD1095E017F107E9F0ED32F105A6
:101C8000C1F0CF01C0970A97B0F4AAE0B0E00E947B
:101C90006C159B01AC01CF01AA2797FDA095BA2F27
:101CA000280F391F4A1F5B1F205331094109510971
:101CB00002C0FF24F394D601ED91FC910680F781D8
:101CC000E02DC60129833A834B835C830995C601C5
:101CD0000E94D70DFC01C09729813A814B815C811C
:101CE0000A9748F2E017F10731F2FF2039F05095DA
:101CF0004095309521953F4F4F4F5F4FB901CA0135
:101D00000F900F900F900F90DF91CF911F910F9137
:101D1000FF90DF90CF90089561E00C94220E05C0F3
:101D20002091F100FC012193CF016150C8F7289860
:101D300084E68093D90308952FB7FC012083F8949B
:101D400067706093E9000895CF93DF931F92CDB73A
:101D5000DEB7682FCE0101960E949C0E8091F200A2
:101D600099819FBF0F90DF91CF910895FF920F93BC
:101D70001F93CF93DF9300D0CDB7DEB7F62E8A0145
:101D80009091D8039923A9F057FF16C012C0289844
:101D90008093D9039091F1009193FE12F8CF4115F1
:101DA000510521F08091F2008823D1F089818FBF05
:101DB0001BC04FEF5FEF18C0682FCE0101967A83EA
:101DC0000E949C0E8091F20090E0A8017A81801719
:101DD00091070CF4AC01EF2DF72FF40E84E6DDCF64
:101DE0008BE68093E800E2CFCA010F900F90DF915D
:101DF000CF911F910F91FF900895CF93DF931F9282
:101E0000CDB7DEB741E050E0BE016F5F7F4F0E946B
:101E1000B60E019719F4298130E002C02FEF3FEF91
:101E2000C9010F90DF91CF910895CF93DF931F9257
:101E3000CDB7DEB7682FCE0101960E949C0E80912F
:101E4000E80085FF05C09091F20080E4891B01C085
:101E500080E099819FBF0F90DF91CF9108956F929D
:101E60007F928F929F92AF92BF92CF92DF92EF922A
:101E7000FF920F931F93CF93DF931F92CDB7DEB7DF
:101E8000782EC42EB52E8091D80381114CC02FEF2F
:101E90003FEF64C0872D0E94150F682E811109C085
:101EA000DA94A9F361E070E080E090E00E947705A9
:101EB00047C0282F30E0021713070CF4602E0619D4
:101EC0001109672DCE0101960E949C0E992041F0C8
:101ED00002C01092F1006A948FEF6812FACF17C017
:101EE000862D77FC02C0F7010EC0970106C0F901EC
:101EF0002F5F3F4FE491E093F1008150C0F705C0A0
:101F000091919093F1008150D8F7E60CF11C8091EB
:101F1000E80085FF20C00115110511F481101BC0D8
:101F200089818FBF0DC07B01042F152F8AEFD82E1A
:101F300090E2992E97202AE3A22E30E4832E872068
:101F40000115110509F0A6CF5D9884E68093DA03A8
:101F50002C2D3B2D03C0A092E800E2CFC9010F90C9
:101F6000DF91CF911F910F91FF90EF90DF90CF9075
:101F7000BF90AF909F908F907F906F900895109238
:101F8000E9001092D7031092D6039093D503809363
:101F9000D4030895FF920F931F93CF93DF93C42F21
:101FA000D52FDB0160E070E0EEEFFE2E38C09D0122
:101FB0002F5F3F4F87FF04C0FD01D901E49102C0AC
:101FC000EC91D9010091D6031091D7032091D4034D
:101FD0003091D50302171307B4F49091E80095707F
:101FE000E1F39091E80092FD1FC0E093F100209191
:101FF000D6033091D7032F5F3F4F2F733327232B07
:1020000011F4F092E8002091D6033091D7032F5FAE
:102010003F4F3093D7032093D6036F5F7F4F6C17EA
:102020007D0729F69A0102C02FEF3FEFC901DF912A
:10203000CF911F910F91FF9008951F93CF93DF933E
:102040001F92CDB7DEB7162F2091E80022FFFCCFFC
:10205000612F79830E948F0E8BEF8093E800812F90
:102060007981972F0F90DF91CF911F910895CF9392
:10207000DF931F92CDB7DEB71982CE0101960E9481
:10208000A109CE0101960E941A12898190E00F9059
:10209000DF91CF9108951F920F920FB60F921124E6
:1020A000EF92FF920F931F932F933F934F935F9362
:1020B0006F937F938F939F93AF93BF93EF93FF9310
:1020C000CF93DF93CDB7DEB76297DEBFCDBF10925F
:1020D000E9008091E80083FFE9C068E0CE010A963C
:1020E0000E948F0E82EF8093E8009A8597FF05C0CB
:1020F0008091E80080FFFCCF03C08EEF8093E80062
:10210000892F807609F0B7C08B85811105C01092A8
:10211000F1001092F100C3C0813009F4C0C08330D7
:1021200009F4BDC0853049F48091E80080FFFCCF00
:102130008C8580688093E300B2C0863009F073C05C
:102140002D85E888F988223071F580E090E02A8BAF
:102150000E94BF0F0E94371099E08E010F5F1F4F42
:10216000F801392F11923A95E9F799832A892A8340
:1021700091E09E8390E898879AEF99872091D60303
:102180003091D703275F3F4F3C832B838D83C7015B
:102190000E94BF0F49E050E0B80180E00E94CA0FE2
:1021A0000E9437107CC0C7012A8B0E94BF0F2A896A
:1021B000223241F482E290E00E942512892B09F03C
:1021C0006EC071C0213071F488899989089719F41B
:1021D00081E08093D3038091D303882389F065E75E
:1021E00071E016C0233009F05EC08C85882359F059
:1021F000823061F0813009F056C069E971E008C0B1
:1022000067E871E005C063ED71E002C061EB71E069
:102210006115710509F447C0FB01449150E080E865
:102220000E94CA0F3CC0873009F43DC0883021F4B9
:1022300081E08093F10033C0893089F5937099F57E
:10224000E1E7F1E081E021E096E38093E90020936B
:10225000EB0034913093EC009093ED008F5F31965A
:10226000853099F78EE78093EA001092EA008C851A
:102270008093D80314C0888999890E94BF0F8E85E6
:10228000811105C0CE010A960E94AC0906C08230B9
:1022900051F4CE010A960E944D12882321F08EEF50
:1022A0008093E80003C081E28093EB0062960FB652
:1022B000F894DEBF0FBECDBFDF91CF91FF91EF91BC
:1022C000BF91AF919F918F917F916F915F914F914E
:1022D0003F912F911F910F91FF90EF900F900FBEA4
:1022E0000F901F9018958093E9008091F200882349
:1022F00019F08AE38093E80008951F920F920FB6B9
:102300000F9211242F933F934F935F936F937F937B
:102310008F939F93AF93BF93EF93FF938091E100CF
:102320001092E10083FF0FC01092E90091E09093BA
:10233000EB001092EC0092E39093ED001092D80322
:1023400098E09093F00082FF27C083E00E94731111
:1023500004C085E393E00E94830982E00E94A40EFA
:102360008111F7CF8091DA03882339F08091DA0365
:1023700081508093DA03882361F08091D903882308
:1023800059F08091D90381508093D903882319F0A3
:1023900003C05D9AF2CF289AFF91EF91BF91AF9160
:1023A0009F918F917F916F915F914F913F912F916D
:1023B0000F900FBE0F901F9018951092D80381E0D8
:1023C0008093D70080EA8093D80082E189BD09B468
:1023D00000FEFDCF61E070E080E090E00E947705B4
:1023E00080E98093D8008CE08093E2001092E000B6
:1023F000559A209A0895FF920F931F93CF93DF93DE
:10240000EC01F62EE881F9810480F581E02D099533
:102410008C01E881F9810680F781E02D6F2DCE01D6
:10242000099598013327C901DF91CF911F910F9131
:10243000FF900895FC0120812F5F208349E150E047
:1024400067E572E080E80C94CA0F45E650E060E76B
:1024500072E080E80C94CA0FEF92FF920F931F93E3
:10246000CF93DF931F92CDB7DEB789838B017A01BB
:1024700041E050E0BE016F5F7F4F84E00E942F0F6C
:10248000A701B80184E40E942F0F0F90DF91CF9134
:102490001F910F91FF90EF900895FC019181808131
:1024A000813A31F481E0913091F0933091F010C095
:1024B000813271F49B3021F4828180930C0105C03C
:1024C0009A3031F4828180930B0181E00895089560
:1024D00080E0089548E050E082E00C942C12FC016A
:1024E0001682178210861186128613861482BC010A
:1024F0006C5F7F4F0C946A12E62F683810F0E85832
:1025000024C0F0E067FF12C0E058F10921E030E09C
:1025100001C0220FEA95EAF72095DC0114963C9160
:102520001497322314963C93E0E00FC0E952FE4F1B
:10253000E491EE2329F1E7FF08C0DC0114962C9109
:1025400014972D7F14962C93EF7720E030E0EE2344
:1025500051F0DC01A20FB31F16964C9116974E1343
:1025600002C016961C922F5F3F4F2630310579F737
:10257000BC016C5F7F4F0E946A1221E030E002C014
:1025800020E030E0C9010895CF93DF93DC01E62F0E
:10259000683810F0E85824C0F0E067FF11C0E05838
:1025A000F10981E090E001C0880FEA95EAF71496FE
:1025B0009C911497982B14969C931497E0E010C06C
:1025C000E952FE4FE491E11101C040C0E7FF08C0AD
:1025D00014968C911497826014968C931497EF77CD
:1025E00016968C9116978E1741F117968C91179726
:1025F0008E1719F118968C9118978E17F1F019967D
:102600008C9119978E17C9F01A968C911A978E177C
:10261000A1F01B968C911B978E1779F080E090E0CB
:10262000ED01C80FD91F2E81211102C0EE8305C014
:10263000019686309105A1F709C0BD016C5F7F4FFF
:10264000CD010E946A1221E030E008C081E090E0F4
:1026500013969C938E93129720E030E0C901DF918E
:10266000CF9108951092E7031092DE031092DD03DC
:1026700080EC92E09093DC038093DB0308954F920B
:102680005F926F927F92AF92BF92CF92DF92EF9262
:10269000FF920F931F93CF93DF93CDB7DEB729013E
:1026A0003A01621B730B840B950B29893A894B897C
:1026B0005C892A193B094C095D09298B3A8B4B8BA4
:1026C0005C8B9B01AC0169897A898B899C890E940A
:1026D0007715E418F50806091709A80197010E9463
:1026E000B5152A0D3B1D4C1D5D1DB901CA01DF91B9
:1026F000CF911F910F91FF90EF90DF90CF90BF90FF
:10270000AF907F906F905F904F900895FC0184850B
:102710009585FC01E05CFF4F20813181FC01EE5B7F
:10272000FF4F80819181281B390B2F733327C901FB
:102730000895FC0184859585FC01E05CFF4F408194
:102740005181FC01EE5BFF4F20813181421753071D
:1027500041F00190F081E02DE80FF91F208130E079
:1027600002C02FEF3FEFC9010895FC0184859585D4
:10277000FC01E05CFF4F40815181FC01EE5BFF4FAB
:10278000208131814217530781F0A081B181A80FC8
:10279000B91F8C91208131812F5F3F4F2F733327D9
:1027A00031832083282F30E002C02FEF3FEFC90193
:1027B0000895FC0186859785FC01E05CFF4FDC01F4
:1027C000AE5BBF4F408151812D913C9111974217D3
:1027D0005307C1F70895CF93DF93FC018685978552
:1027E000DC01A05CBF4F2D913C9111972F5F3F4FB3
:1027F0002F733327EC01CE5BDF4F488159812417BB
:102800003507D9F30D90BC91A02DA80FB91F6C937B
:10281000A685B785A05CBF4F11963C932E93A689E1
:10282000B7892C9181E090E0058C02C0880F991F38
:102830000A94E2F7282B2C9381E090E0DF91CF916E
:10284000089508951F920F920FB60F9211242F939F
:102850003F934F938F939F93EF93FF934091CE00BD
:1028600080918B0490918C0401968F73992720910D
:102870008D0430918E048217930759F0E0918B04F8
:10288000F0918C04E55BFB4F408390938C04809324
:102890008B04FF91EF919F918F914F913F912F91D9
:1028A0000F900FBE0F901F90189588EE93E00E9436
:1028B0008613892B11F00C94211408951F920F9206
:1028C0000FB60F9211242F933F938F939F93EF9303
:1028D000FF932091470430914804809149049091DE
:1028E0004A042817390731F48091C9008F7D8093FD
:1028F000C90014C0E0914904F0914A04E95FFB4F1C
:1029000020818091490490914A0401968F73992700
:1029100090934A04809349042093CE00FF91EF9155
:102920009F918F913F912F910F900FBE0F901F900D
:102930001895CF92DF92EF92FF92CF93DF93EC0145
:102940006A017B01411581EE580761057105F9F0B7
:10295000EC89FD8981E090E00E8C02C0880F991F00
:102960000A94E2F7808360E079E08DE390E0A701CC
:1029700096010E949315215031094109510956953C
:10298000479537952795211580E1380798F0EC8910
:10299000FD89108260E874E88EE190E0A70196015D
:1029A0000E949315215031094109510956954795C7
:1029B00037952795E889F9893083EA89FB8920834F
:1029C000EE89FF89408181E090E09C010A8C02C081
:1029D000220F331F0A94E2F7422B4083EE89FF89CE
:1029E00040819C010B8C02C0220F331F0A94E2F736
:1029F000422B4083EE89FF8940819C010C8C02C0F0
:102A0000220F331F0A94E2F7422B4083EE89FF899D
:102A100020810D8C02C0880F991F0A94E2F78095DF
:102A200082238083DF91CF91FF90EF90DF90CF9052
:102A300008951092EB031092EA0388EE93E0A0E071
:102A4000B0E08093EC039093ED03A093EE03B0937A
:102A5000EF038EEC92E09093E9038093E8038BE41C
:102A600094E09093F5038093F40387E094E09093CF
:102A7000F7038093F6038DEC90E09093F903809335
:102A8000F8038CEC90E09093FB038093FA0388ECBE
:102A900090E09093FD038093FC0389EC90E0909389
:102AA000FF038093FE038EEC90E0909301048093EB
:102AB000000484E08093020483E08093030487E0B1
:102AC0008093040485E08093050481E080930604EC
:102AD0000895F8940C94E3150E94D115A59F900DCC
:102AE000B49F900DA49F800D911D11240895DB01CA
:102AF0008F939F930E946C15BF91AF91A29F800D01
:102B0000911DA39F900DB29F900D11240895991BC4
:102B100079E004C0991F961708F0961B881F7A95D4
:102B2000C9F780950895A1E21A2EAA1BBB1BFD01CF
:102B30000DC0AA1FBB1FEE1FFF1FA217B307E4079C
:102B4000F50720F0A21BB30BE40BF50B661F771FF4
:102B5000881F991F1A9469F76095709580959095D4
:102B60009B01AC01BD01CF010895052E97FB16F422
:102B7000009407D057FD0DD00E94931507FC09D093
:102B80007EF490958095709561957F4F8F4F9F4F04
:102B9000089550954095309521953F4F4F4F5F4F89
:102BA0000895A29FB001B39FC001A39F01D0B29F1F
:102BB000700D811D1124911D0895EE0FFF1F0590CA
:0A2BC000F491E02D0994F894FFCF82
:102BCA000E000100E10000000000000101546168EC
:102BDA000041303A0041313A0041323A0041333A39
:102BEA000041343A0041353A0044323A0044333A1B
:102BFA000044343A0044353A0044363A0044373AFD
:102C0A000044383A0044393A004431303A004431F9
:102C1A00313A004431323A004431333A002C000050
:102C2A000000005809DC070D0933091B09800983D4
:102C3A000941540041542B52455345540041542BE9
:102C4A004E414D450041542B41445649003400350C
:102C5A0000360037003800390041542B42415443B2
:102C6A000041542B434C4541520041542B434F4E93
:102C7A004E4C0041542B434F4E0041542B44495370
:102C8A00433F0041542B434F4E4E0041542B444581
:102C9A004C4F0041542B46494C540041542B494D4A
:102CAA004D450041542B494245410041542B49426C
:102CBA0045300041542B494245310041542B494289
:102CCA0045320041542B494245330041542B4D4172
:102CDA00524A0030780041542B4D494E4F0041541E
:102CEA002B4D4F44450041542B4E4F5449004154FB
:102CFA002B504153530041542B54595045004154D1
:102D0A002B504F57450041542B5057524D00576195
:102D1A006B6546726F6D536C65657057616B65467E
:102D2A00726F6D536C65657057616B6546726F6D36
:102D3A00536C65657057616B6546726F6D536C6550
:102D4A0065700041542B4E414D4554414800415451
:102D5A002B504153533030303030300041542B52D5
:102D6A004F4C45300041542B4241554430004154A8
:102D7A002B524F4C4500000000001B0A00000000C7
:102D8A00FB11DC07C4127C126F1200000000EB1367
:0A2D9A00DC078613B5139913D91353
:00000001FF
