:100000000C9460010C9488010C9488010C94880174
:100010000C9488010C9488010C9488010C9488013C
:100020000C9488010C9488010C9464060C9432059D
:100030000C9488010C9488010C9488010C9488011C
:100040000C9488010C9488010C9488010C9488010C
:100050000C9488010C9488010C9488010C94A201E2
:100060000C9488010C9488010C9488010C948801EC
:100070000C9488010C9488010C9488010C948801DC
:100080000C9488010C9488010C9488010C948801CC
:100090000C9488010C9488010C9488010C948801BC
:1000A0000C9488010C9488010C94880100000002D3
:1000B00000080E0000030401000B00000408020108
:1000C00010408040102040804080080204018040A1
:1000D0002010020110801020404004040404040396
:1000E00004050202020204030202020206060606D8
:1000F0000606040402020204000000002500280095
:100100002B002E00310000000000240027002A00F0
:100110002D00300000C18081C112010002020000E8
:10012000404123368000010102000112010002005B
:100130000000404123368000010102000118034104
:100140000072006400750069006E006F0020004CB2
:10015000004C0043002203410072006400750069F6
:10016000006E006F0020004C0065006F006E0061A3
:1001700000720064006F0004030904000000000026
:100180000000002A2B2800000000000000000000F2
:1001900000000000000000000000002C9EB4A0A1A0
:1001A000A2A434A6A7A5AE362D3738271E1F2021BE
:1001B0002223242526B333B62EB7B89F848586879D
:1001C00088898A8B8C8D8E8F909192939495969737
:1001D00098999A9B9C9D2F3130A3AD350405060755
:1001E00008090A0B0C0D0E0F101112131415161717
:1001F00018191A1B1C1DAFB1B0B50009040200018B
:1002000003000000092101010001226500070584A7
:100210000340000105010902A1010901A1008501B6
:1002200005091901290315002501950375018102AE
:1002300095017505810305010930093109381581DA
:10024000257F750895038106C0C005010906A10137
:100250008502050719E029E71500250175019508B4
:1002600081029501750881039506750815002565BD
:100270000507190029658100C0080B000202020170
:10028000000904000001020200000524001001051D
:10029000240101010424020605240600010705814A
:1002A0000310004009040100020A000000070502D3
:1002B00002400000070583024000000019081C09E5
:1002C00011241FBECFEFDAE0DEBFCDBF11E0A0E00A
:1002D000B1E0ECECF2E102C005900D92AA32B10758
:1002E000D9F711E0AAE2B1E001C01D92AB39B10724
:1002F000E1F712E0C0ECD2E004C02297FE010E94B8
:100300006009CC3BD107C9F70E9465030C945B09D7
:100310000C94000061E08DE00C94F60260E08DE04A
:100320000E942E0368EE73E080E090E00E941602C7
:1003300061E08DE00E942E0368EE73E080E090E0C3
:100340000C9416021F920F920FB60F9211242F9346
:100350003F938F939F93AF93BF9380912A01909186
:100360002B01A0912C01B0912D0130913201232F4E
:100370002D5F2D3720F40196A11DB11D05C0232F3F
:100380002A570296A11DB11D2093320180932A01A4
:1003900090932B01A0932C01B0932D0180912E01FD
:1003A00090912F01A0913001B09131010196A11DD2
:1003B000B11D80932E0190932F01A0933001B09333
:1003C0003101BF91AF919F918F913F912F910F90EC
:1003D0000FBE0F901F9018950F931F939FB7F8941F
:1003E00000912E0110912F012091300130913101A7
:1003F00086B5A89B06C08F3F21F00F5F1F4F2F4F80
:100400003F4F9FBF322F212F102F0027080F111DA4
:10041000211D311D42E0000F111F221F331F4A957D
:10042000D1F7B801C9011F910F910895CF92DF92C2
:10043000EF92FF92CF93DF936B017C010E94EC015E
:10044000EB010EC00E94EC016C1B7D0B683E7340FB
:1004500038F081E0C81AD108E108F108C851DC4F32
:10046000C114D104E104F10469F7DF91CF91FF9049
:10047000EF90DF90CF900895789484B5826084BD2A
:1004800084B5816084BD85B5826085BD85B5816098
:1004900085BDEEE6F0E0808181608083E1E8F0E0F8
:1004A0001082808182608083808181608083E0E827
:1004B000F0E0808181608083E1EBF0E08081846006
:1004C0008083E0EBF0E0808181608083E1E9F0E00F
:1004D000808182608083808181608083E0E9F0E0B8
:1004E000808181608083E1ECF0E0808184608083A2
:1004F000808182608083808181608083E3ECF0E092
:10050000808181608083E0ECF0E080818260808384
:10051000E2ECF0E0808181608083EAE7F0E08081B6
:100520008460808380818260808380818160808319
:1005300080818068808308958730A1F178F48330CA
:10054000E1F030F4813019F1823009F04EC022C060
:100550008430B9F0863009F048C020C08A3081F17B
:1005600030F4883029F1893009F03FC025C08C3043
:1005700089F160F18E30C9F533C0809180008F77AA
:1005800003C0809180008F7D80938000089584B5A2
:100590008F7702C084B58F7D84BD08958091B000AF
:1005A0008F7703C08091B0008F7D8093B000089555
:1005B000809190008F7707C0809190008F7D03C05D
:1005C00080919000877F8093900008958091C00073
:1005D0008F7703C08091C0008F7D8093C000089505
:1005E0008091C200877F8093C2000895CF93DF93EC
:1005F00090E0FC01E454FF4F4491FC01E652FF4FB0
:100600008491882341F190E0880F991FFC01EA5FF3
:10061000FE4F25913491D90188509F4FFC0185915F
:100620009491C82FD92F9FB7F8948C91611106C06F
:10063000409584238C938881842308C0623041F4E0
:10064000242F209582238C938881842B888302C059
:10065000842B8C939FBFDF91CF9108950F931F93AD
:10066000CF93DF931F92CDB7DEB7282F30E0F9018B
:10067000E455FF4F8491F901E454FF4F1491F901BF
:10068000E652FF4F04910023D1F0882321F06983C3
:100690000E949C026981E02FF0E0EE0FFF1FE850FE
:1006A000FF4F85919491DC019FB7F8948C91611173
:1006B00003C01095812301C0812B8C939FBF0F90A5
:1006C000DF91CF911F910F9108950E943C0283E327
:1006D00091E00E94C4060E948A01C0E0D0E00E941E
:1006E0008E012097E1F30E940000F9CF05C0209110
:1006F000F100FC012193CF016150C8F7289884E6EE
:1007000080933A0108952FB7FC012083F894677015
:100710006093E9000895CF93DF931F92CDB7DEB7C2
:10072000682FCE0101960E9483038091F200998187
:100730009FBF0F90DF91CF910895FF920F931F936A
:10074000CF93DF9300D0CDB7DEB7F62E8A0190911C
:1007500039019923A9F057FF16C012C02898809339
:100760003A019091F1009193FE12F8CF4115510595
:1007700021F08091F2008823D1F089818FBF1BC0C6
:100780004FEF5FEF18C0682FCE0101967A830E9469
:1007900083038091F20090E0A8017A81801791078D
:1007A0000CF4AC01EF2DF72FF40E84E6DDCF8BE6D1
:1007B0008093E800E2CFCA010F900F90DF91CF91B4
:1007C0001F910F91FF900895CF93DF931F92CDB7A4
:1007D000DEB741E050E0BE016F5F7F4F0E949D0396
:1007E000019719F4298130E002C02FEF3FEFC901D2
:1007F0000F90DF91CF910895CF93DF931F92CDB7E4
:10080000DEB7682FCE0101960E9483038091E80035
:1008100085FF05C09091F20080E4891B01C080E053
:1008200099819FBF0F90DF91CF9108956F927F9232
:100830008F929F92AF92BF92CF92DF92EF92FF92F0
:100840000F931F93CF93DF931F92CDB7DEB7782E10
:10085000C42EB52E8091390181114CC02FEF3FEF8E
:1008600064C0872D0E94FC03682E811109C0DA94B0
:10087000A9F361E070E080E090E00E94160247C0BA
:10088000282F30E0021713070CF4602E0619110907
:10089000672DCE0101960E948303992041F002C08A
:1008A0001092F1006A948FEF6812FACF17C0862D6C
:1008B00077FC02C0F7010EC0970106C0F9012F5F57
:1008C0003F4FE491E093F1008150C0F705C0919152
:1008D0009093F1008150D8F7E60CF11C8091E8006C
:1008E00085FF20C00115110511F481101BC08981FD
:1008F0008FBF0DC07B01042F152F8AEFD82E90E2F9
:10090000992E97202AE3A22E30E4832E872001150A
:10091000110509F0A6CF5D9884E680933B012C2D4C
:100920003B2D03C0A092E800E2CFC9010F90DF91F8
:10093000CF911F910F91FF90EF90DF90CF90BF90DC
:10094000AF909F908F907F906F9008951092E900E4
:10095000109238011092370190933601809335013F
:100960000895FF920F931F93CF93DF93C42FD52F3A
:10097000DB0160E070E0EEEFFE2E38C09D012F5FDE
:100980003F4F87FF04C0FD01D901E49102C0EC9103
:10099000D901009137011091380120913501309132
:1009A000360102171307B4F49091E8009570E1F353
:1009B0009091E80092FD1FC0E093F1002091370173
:1009C000309138012F5F3F4F2F733327232B11F4C2
:1009D000F092E80020913701309138012F5F3F4FAE
:1009E00030933801209337016F5F7F4F6C177D077D
:1009F00029F69A0102C02FEF3FEFC901DF91CF9195
:100A00001F910F91FF9008951F93CF93DF931F9233
:100A1000CDB7DEB7162F2091E80022FFFCCF612F63
:100A200079830E9476038BEF8093E800812F798190
:100A3000972F0F90DF91CF911F910895CF93DF9360
:100A40001F92CDB7DEB71982CE0101960E94BA0877
:100A5000CE0101960E940107898190E00F90DF91FD
:100A6000CF9108951F920F920FB60F921124EF921B
:100A7000FF920F931F932F933F934F935F936F9327
:100A80007F938F939F93AF93BF93EF93FF93CF93F6
:100A9000DF93CDB7DEB76297DEBFCDBF1092E9001E
:100AA0008091E80083FFE9C068E0CE010A960E94C9
:100AB000760382EF8093E8009A8597FF05C08091C6
:100AC000E80080FFFCCF03C08EEF8093E800892F01
:100AD000807609F0B7C08B85811105C01092F100B6
:100AE0001092F100C3C0813009F4C0C0833009F412
:100AF000BDC0853049F48091E80080FFFCCF8C8533
:100B000080688093E300B2C0863009F073C02D8501
:100B1000E888F988223071F580E090E02A8B0E9405
:100B2000A6040E941E0599E08E010F5F1F4FF80179
:100B3000392F11923A95E9F799832A892A8391E00E
:100B40009E8390E898879AEF99872091370130919A
:100B50003801275F3F4F3C832B838D83C7010E9461
:100B6000A60449E050E0B80180E00E94B1040E9470
:100B70001E057CC0C7012A8B0E94A6042A89223246
:100B800041F482E290E00E940C07892B09F06EC0CC
:100B900071C0213071F488899989089719F481E02E
:100BA0008093340180913401882389F069E171E0F8
:100BB00016C0233009F05EC08C85882359F082303E
:100BC00061F0813009F056C06DE371E008C06BE25E
:100BD00071E005C067E771E002C065E571E061158D
:100BE000710509F447C0FB01449150E080E80E9480
:100BF000B1043CC0873009F43DC0883021F481E065
:100C00008093F10033C0893089F5937099F5E5E15F
:100C1000F1E081E021E096E38093E9002093EB008E
:100C200034913093EC009093ED008F5F31968530D6
:100C300099F78EE78093EA001092EA008C85809302
:100C4000390114C0888999890E94A6048E85811172
:100C500005C0CE010A960E94C50806C0823051F434
:100C6000CE010A960E943407882321F08EEF8093EC
:100C7000E80003C081E28093EB0062960FB6F8941F
:100C8000DEBF0FBECDBFDF91CF91FF91EF91BF913E
:100C9000AF919F918F917F916F915F914F913F9114
:100CA0002F911F910F91FF90EF900F900FBE0F901B
:100CB0001F9018958093E9008091F200882319F025
:100CC0008AE38093E80008951F920F920FB60F9267
:100CD00011242F933F934F935F936F937F938F9341
:100CE0009F93AF93BF93EF93FF938091E100109296
:100CF000E10083FF0FC01092E90091E09093EB00B8
:100D00001092EC0092E39093ED001092390198E07C
:100D10009093F00082FF27C083E00E945A0604C02F
:100D200089E491E00E949C0882E00E948B0381117B
:100D3000F7CF80913B01882339F080913B018150AE
:100D400080933B01882361F080913A01882359F018
:100D500080913A01815080933A01882319F003C0B1
:100D60005D9AF2CF289AFF91EF91BF91AF919F9139
:100D70008F917F916F915F914F913F912F910F9044
:100D80000FBE0F901F9018951092390181E080934B
:100D9000D70080EA8093D80082E189BD09B400FEC3
:100DA000FDCF61E070E080E090E00E94160280E9F3
:100DB0008093D8008CE08093E2001092E000559A76
:100DC000209A0895FF920F931F93CF93DF93EC0126
:100DD000F62EE881F9810480F581E02D09958C01DA
:100DE000E881F9810680F781E02D6F2DCE0109950C
:100DF00098013327C901DF91CF911F910F91FF9087
:100E00000895FC0120812F5F208349E150E06BEFC2
:100E100071E080E80C94B10445E650E064E172E0D2
:100E200080E80C94B104EF92FF920F931F93CF933D
:100E3000DF931F92CDB7DEB789838B017A0141E042
:100E400050E0BE016F5F7F4F84E00E941604A7014F
:100E5000B80184E40E9416040F90DF91CF911F9196
:100E60000F91FF90EF900895FC0191818081813A6C
:100E700031F481E0913091F0933091F010C08132E3
:100E800071F49B3021F482818093010105C09A3076
:100E900031F482818093000181E00895089580E01B
:100EA000089548E050E082E00C941307FC0116829C
:100EB000178210861186128613861482BC016C5F1D
:100EC0007F4F0C945107E62F683810F0E85824C083
:100ED000F0E067FF12C0E058F10921E030E001C006
:100EE000220FEA95EAF72095DC0114963C911497BD
:100EF000322314963C93E0E00FC0E558FE4FE49196
:100F0000EE2329F1E7FF08C0DC0114962C91149719
:100F10002D7F14962C93EF7720E030E0EE2351F0F4
:100F2000DC01A20FB31F16964C9116974E1302C008
:100F300016961C922F5F3F4F2630310579F7BC0182
:100F40006C5F7F4F0E94510721E030E002C020E03B
:100F500030E0C9010895CF93DF93DC01E62F6838B4
:100F600010F0E85824C0F0E067FF11C0E058F10924
:100F700081E090E001C0880FEA95EAF714969C9111
:100F80001497982B14969C931497E0E010C0E558A2
:100F9000FE4FE491E11101C040C0E7FF08C0149684
:100FA0008C911497826014968C931497EF77169611
:100FB0008C9116978E1741F117968C9117978E1773
:100FC00019F118968C9118978E17F1F019968C914B
:100FD00019978E17C9F01A968C911A978E17A1F04F
:100FE0001B968C911B978E1779F080E090E0ED01B5
:100FF000C80FD91F2E81211102C0EE8305C00196B2
:1010000086309105A1F709C0BD016C5F7F4FCD010E
:101010000E94510721E030E008C081E090E0139683
:101020009C938E93129720E030E0C901DF91CF911D
:1010300008951092480110923F0110923E018EE0F7
:1010400091E090933D0180933C0108952091970198
:10105000309198018091990190919A01281B390B48
:101060002F733327C901089520919701309198017A
:101070008091990190919A012817390749F0E091E0
:101080009901F0919A01E95AFE4F208130E002C0A7
:101090002FEF3FEFC90108952091970130919801FA
:1010A0008091990190919A0128173907B1F0E09148
:1010B0009901F0919A01E95AFE4F8081209199019E
:1010C00030919A012F5F3F4F2F73332730939A014E
:1010D00020939901282F30E002C02FEF3FEFC90184
:1010E00008950F931F93CF93DF931F92CDB7DEB771
:1010F0008C01698380910901882369F041E050E007
:10110000BE016F5F7F4F83E00E9416041816190618
:1011100014F49C0107C081E090E0F801938382837E
:1011200020E030E0C9010F90DF91CF911F910F9126
:10113000089583E00C945A0682E00E94E403209113
:101140009701309198012F5F3F4F2F7333274091C4
:10115000990150919A012417350759F0E0919701B0
:10116000F0919801E95AFE4F8083309398012093C3
:1011700097010895FC0120812E5F208342E450E016
:1011800069E772E080E80C94B104FC0181819081F0
:10119000913A59F4813209F04BC047E050E062E0E7
:1011A00071E080E00E94B10445C0913209F040C076
:1011B000803239F467E070E082E091E00E9404053B
:1011C00039C0823209F034C0828180930901809154
:1011D000020190910301A0910401B0910501803BAF
:1011E0009440A105B10531F58091090180FD12C03F
:1011F00087E797E790930108809300082BE088E148
:1012000090E00FB6F894A895809360000FBE2093ED
:10121000600010C088E10FB6F894809360001092CF
:1012200060000FBEA895109201081092000802C03D
:1012300080E0089581E0089510924C0110924B01D6
:1012400088EE93E0A0E0B0E080934D0190934E01D2
:10125000A0934F01B09350018CE191E090934A012B
:10126000809349010895CF92DF92EF92FF920F93FE
:101270001F93CF93DF936C01EB017A01E60EF71E0B
:1012800000E010E00BC06991D601ED91FC91019056
:10129000F081E02DC6010995080F191FCE15DF0555
:1012A00091F7C801DF91CF911F910F91FF90EF90BF
:1012B000DF90CF900895F8940C946409EE0FFF1F0F
:0C12C0000590F491E02D0994F894FFCF04
:1012CC00010100E100000000000000000000E20647
:1012DC003309AB0763075607000000007108330998
:0A12EC0026084C08340899089C08F5
:00000001FF
