:100000000C9467010C948F010C948F010C948F0158
:100010000C948F010C948F010C948F010C948F0120
:100020000C948F010C948F010C9457080C942507A5
:100030000C948F010C948F010C948F010C948F0100
:100040000C948F010C948F010C948F010C948F01F0
:100050000C948F010C948F010C948F010C9451041B
:100060000C948F010C948F010C948F010C948F01D0
:100070000C948F010C948F010C948F010C948F01C0
:100080000C948F010C948F010C948F010C948F01B0
:100090000C948F010C948F010C948F010C948F01A0
:1000A0000C948F010C948F010C948F0100000002BE
:1000B00000080E0000030401000B00000000000017
:1000C00000000000000000000000040802011040D1
:1000D00080401020408040800802040180402010B1
:1000E00002011080102040400404040404030405AD
:1000F00002020202040302020202060606060606C5
:1001000004040202020400000000250028002B0065
:100110002E00310000000000240027002A002D00DE
:100120003000080B00020202010009040000010275
:10013000020000052400100105240101010424022D
:10014000060524060001070581031000400904018B
:1001500000020A00000007050202400000070583B4
:100160000240000000C18081C112010002020000B3
:10017000404123368000010102000112010002000B
:1001800000004041233680000101020001180341B4
:100190000072006400750069006E006F0020004C62
:1001A000004C0043002203410072006400750069A6
:1001B000006E006F0020004C0065006F006E006153
:1001C00000720064006F00040309040000000000D6
:1001D0000000002A2B2800000000000000000000A2
:1001E00000000000000000000000002C9EB4A0A150
:1001F000A2A434A6A7A5AE362D3738271E1F20216E
:100200002223242526B333B62EB7B89F848586874C
:1002100088898A8B8C8D8E8F9091929394959697E6
:1002200098999A9B9C9D2F3130A3AD350405060704
:1002300008090A0B0C0D0E0F1011121314151617C6
:1002400018191A1B1C1DAFB1B0B50009040200013A
:100250000300000009210101000122650007058457
:100260000340000105010902A1010901A100850166
:10027000050919012903150025019503750181025E
:10028000950175058103050109300931093815818A
:10029000257F750895038106C0C005010906A101E7
:1002A0008502050719E029E7150025017501950864
:1002B000810295017508810395067508150025656D
:1002C0000507190029658100C0003A040B0A1124B2
:1002D0001FBECFEFDAE0DEBFCDBF11E0A0E0B1E09E
:1002E000E6E4F4E102C005900D92AA32B107D9F715
:1002F00011E0AAE2B1E001C01D92AB39B107E1F70C
:1003000012E0CEECD2E004C02297FE010E941D0A4A
:10031000CA3CD107C9F70E942A030C94180A0C940E
:10032000000060E875E28AE291E00E94390460E032
:1003300082E10E94BB0260E083E10E94BB0260E0B8
:1003400084E10E94BB0260E085E10E94BB0260E0A4
:1003500086E10E94BB0260E087E10C94BB0260E092
:1003600070E082E10E94CD0160E070E083E10E94D4
:10037000CD0160E070E084E10E94CD0160E070E0BA
:1003800085E10E94CD0160E070E086E10E94CD0130
:1003900060E070E087E10C94CD011F93CF93DF9371
:1003A000182FEB0161E00E94BB02209711F460E07E
:1003B00004C0CF3FD10539F461E0812FDF91CF91A7
:1003C0001F910C94F302E12FF0E0E455FF4FE4910C
:1003D000E830E9F168F4E23009F120F4E13009F0A5
:1003E00076C017C0E330F9F0E43009F070C025C0E2
:1003F000EB3009F44AC030F4E93099F1EA3009F001
:1004000066C039C0EC3009F44DC0EE3009F05FC071
:1004100051C084B5806884BDC7BD5EC084B58062AC
:1004200084BDC8BD59C080918000806880938000E1
:10043000D0938900C09388004FC080918000806273
:1004400080938000D0938B00C0938A0045C0809138
:100450009000806880939000D0939900C09398009A
:100460003BC080919000806280939000D0939B006D
:10047000C0939A0031C08091900088608093900072
:10048000D0939D00C0939C0027C08091C0008068DD
:100490008093C0008091C0008F7B8093C000C09388
:1004A000CF001AC08091C00080628093C000C093CA
:1004B000D00012C08091C20088608093C2008091F9
:1004C000C2008B7F8093C200C093D20005C0C038A9
:1004D000D1050CF071CF6BCFDF91CF911F910895B3
:1004E000883059F160F4823021F120F4813009F034
:1004F00041C01CC0833081F08430E1F511C08B30E5
:1005000051F128F48930E9F08A30A1F51EC08C3011
:1005100031F18E3079F529C0809180008F7703C04A
:10052000809180008F7D80938000089584B58F77BF
:1005300002C084B58F7D84BD0895809190008F772F
:1005400007C0809190008F7D03C080919000877FCD
:100550008093900008958091C0008F7703C08091B0
:10056000C0008F7D8093C00008958091C200877F76
:100570008093C2000895CF93DF9390E0FC01E6538F
:10058000FF4F4491FC01E851FF4F8491882341F1D2
:1005900090E0880F991FFC01EC5EFE4F259134918D
:1005A000D9018A5F9E4FFC0185919491C82FD92F64
:1005B0009FB7F8948C91611106C0409584238C9369
:1005C0008881842308C0623041F4242F209582233F
:1005D0008C938881842B888302C0842B8C939FBF4B
:1005E000DF91CF9108950F931F93CF93DF931F92C5
:1005F000CDB7DEB7282F30E0F901E455FF4F8491E5
:10060000F901E653FF4F1491F901E851FF4F0491AE
:100610000023D1F0882321F069830E947002698150
:10062000E02FF0E0EE0FFF1FEA5FFE4F85919491FF
:10063000DC019FB7F8948C91611103C01095812360
:1006400001C0812B8C939FBF0F90DF91CF911F91A1
:100650000F9108950E94EB0485E891E00E94B6088E
:100660000E949101C0E0D0E00E94AF012097E1F329
:100670000E940000F9CF209178013091790180919A
:100680007A0190917B01281B390B2F733327C90105
:100690000895209178013091790180917A019091AB
:1006A0007B012817390749F0E0917A01F0917B012D
:1006B000E85CFE4F208130E002C02FEF3FEFC90120
:1006C0000895209178013091790180917A0190917B
:1006D0007B0128173907B1F0E0917A01F0917B0195
:1006E000E85CFE4F808120917A0130917B012F5F81
:1006F0003F4F2F73332730937B0120937A01282FAC
:1007000030E002C02FEF3FEFC90108950F931F9310
:10071000CF93DF931F92CDB7DEB78C0169838091B1
:100720000701882369F041E050E0BE016F5F7F4F11
:1007300083E00E9409061816190614F49C0107C0EC
:1007400081E090E0F8019383828320E030E0C901EA
:100750000F90DF91CF911F910F91089583E00C943A
:100760004D08CF93DF9312C082E00E94D7058F3FE0
:100770002FEF9207C9F0E0917801F0917901E85CE0
:10078000FE4F8083D0937901C0937801C0917801A6
:10079000D09179012196CF73DD2780917A019091D4
:1007A0007B01C817D90701F7DF91CF910895FC01AC
:1007B00020812E5F208342E450E062E271E080E815
:1007C0000C94A406FC0181819081913A59F4813204
:1007D00009F04BC047E050E060E071E080E00E942B
:1007E000A40645C0913209F040C0803239F467E078
:1007F00070E080E091E00E94F70639C0823209F093
:1008000034C08281809307018091000190910101A1
:10081000A0910201B0910301803B9440A105B10574
:1008200031F58091070180FD12C087E797E790932B
:100830000108809300082BE088E190E00FB6F8945F
:10084000A895809360000FBE2093600010C088E1DF
:100850000FB6F89480936000109260000FBEA895C8
:10086000109201081092000802C080E0089581E013
:100870000895089510922D0110922C0188EE93E0B6
:10088000A0E0B0E080932E0190932F01A09330015F
:10089000B09331018EE091E090932B0180932A0177
:1008A00008951F920F920FB60F9211242F933F932A
:1008B0008F939F93AF93BF9380917C0190917D0123
:1008C000A0917E01B0917F0130918401232F2D5F93
:1008D0002D3720F40196A11DB11D05C0232F2A57E5
:1008E0000296A11DB11D2093840180937C019093F9
:1008F0007D01A0937E01B0937F0180918001909152
:100900008101A0918201B09183010196A11DB11DC9
:100910008093800190938101A0938201B093830121
:10092000BF91AF919F918F913F912F910F900FBEEB
:100930000F901F9018950F931F939FB7F8940091F5
:10094000800110918101209182013091830186B54F
:10095000A89B06C08F3F21F00F5F1F4F2F4F3F4FC7
:100960009FBF322F212F102F0027080F111D211D8F
:10097000311D42E0000F111F221F331F4A95D1F78E
:10098000B801C9011F910F910895CF92DF92EF92A4
:10099000FF92CF93DF936B017C010E949B04EB01DC
:1009A0000EC00E949B046C1B7D0B683E734038F0A8
:1009B00081E0C81AD108E108F108C851DC4FC11420
:1009C000D104E104F10469F7DF91CF91FF90EF903A
:1009D000DF90CF900895789484B5826084BD84B50B
:1009E000816084BD85B5826085BD85B5816085BD2A
:1009F000EEE6F0E0808181608083E1E8F0E0108243
:100A0000808182608083808181608083E0E8F0E083
:100A1000808181608083E1E9F0E080818260808371
:100A2000808181608083E0E9F0E080818160808363
:100A3000E1ECF0E08081846080838081826080834B
:100A4000808181608083E3ECF0E08081816080833D
:100A5000E0ECF0E0808182608083E2ECF0E0808175
:100A600081608083EAE7F0E0808184608083808118
:100A700082608083808181608083808180688083C0
:100A80000895CF92DF92EF92FF920F931F93CF932F
:100A9000DF936C01EB017A01E60EF71E00E010E037
:100AA0000BC06991D601ED91FC910190F081E02D90
:100AB000C6010995080F191FCE15DF0591F7C8016A
:100AC000DF91CF911F910F91FF90EF90DF90CF902A
:100AD000089505C02091F100FC012193CF016150E0
:100AE000C8F7289884E680938C0108952FB7FC01FD
:100AF0002083F89467706093E9000895CF93DF93A3
:100B00001F92CDB7DEB7682FCE0101960E94760501
:100B10008091F20099819FBF0F90DF91CF9108954E
:100B2000FF920F931F93CF93DF9300D0CDB7DEB723
:100B3000F62E8A0190918B019923A9F057FF16C0D8
:100B400012C0289880938C019091F1009193FE122D
:100B5000F8CF4115510521F08091F2008823D1F0A2
:100B600089818FBF1BC04FEF5FEF18C0682FCE0188
:100B700001967A830E9476058091F20090E0A801A8
:100B80007A81801791070CF4AC01EF2DF72FF40E4A
:100B900084E6DDCF8BE68093E800E2CFCA010F90B8
:100BA0000F90DF91CF911F910F91FF900895CF93F8
:100BB000DF931F92CDB7DEB741E050E0BE016F5F1B
:100BC0007F4F0E949005019719F4298130E002C0FF
:100BD0002FEF3FEFC9010F90DF91CF910895CF9391
:100BE000DF931F92CDB7DEB7682FCE0101960E942A
:100BF00076058091E80085FF05C09091F20080E4C1
:100C0000891B01C080E099819FBF0F90DF91CF9138
:100C100008956F927F928F929F92AF92BF92CF92E0
:100C2000DF92EF92FF920F931F93CF93DF931F9268
:100C3000CDB7DEB7782EC42EB52E80918B018111F1
:100C40004CC02FEF3FEF64C0872D0E94EF05682E48
:100C5000811109C0DA94A9F361E070E080E090E0CE
:100C60000E94C50447C0282F30E0021713070CF478
:100C7000602E06191109672DCE0101960E94760596
:100C8000992041F002C01092F1006A948FEF68122F
:100C9000FACF17C0862D77FC02C0F7010EC097016E
:100CA00006C0F9012F5F3F4FE491E093F1008150BE
:100CB000C0F705C091919093F1008150D8F7E60CF0
:100CC000F11C8091E80085FF20C00115110511F489
:100CD00081101BC089818FBF0DC07B01042F152F90
:100CE0008AEFD82E90E2992E97202AE3A22E30E4A4
:100CF000832E87200115110509F0A6CF5D9884E6A3
:100D000080938D012C2D3B2D03C0A092E800E2CFF3
:100D1000C9010F90DF91CF911F910F91FF90EF903C
:100D2000DF90CF90BF90AF909F908F907F906F900B
:100D300008951092E90010928A011092890190930F
:100D40008801809387010895FF920F931F93CF939B
:100D5000DF93C42FD52FDB0160E070E0EEEFFE2EB5
:100D600038C09D012F5F3F4F87FF04C0FD01D901AF
:100D7000E49102C0EC91D9010091890110918A019E
:100D8000209187013091880102171307B4F49091E4
:100D9000E8009570E1F39091E80092FD1FC0E093A8
:100DA000F1002091890130918A012F5F3F4F2F730D
:100DB0003327232B11F4F092E80020918901309120
:100DC0008A012F5F3F4F30938A01209389016F5F23
:100DD0007F4F6C177D0729F69A0102C02FEF3FEF76
:100DE000C901DF91CF911F910F91FF9008951F933B
:100DF000CF93DF931F92CDB7DEB7162F2091E80077
:100E000022FFFCCF612F79830E9469058BEF8093CD
:100E1000E800812F7981972F0F90DF91CF911F915B
:100E20000895CF93DF931F92CDB7DEB71982CE011D
:100E300001960E94D703CE0101960E94F308898192
:100E400090E00F90DF91CF9108951F920F920FB60F
:100E50000F921124EF92FF920F931F932F933F93C2
:100E60004F935F936F937F938F939F93AF93BF93B2
:100E7000EF93FF93CF93DF93CDB7DEB76297DEBFDB
:100E8000CDBF1092E9008091E80083FFE9C068E0DF
:100E9000CE010A960E94690582EF8093E8009A8548
:100EA00097FF05C08091E80080FFFCCF03C08EEF64
:100EB0008093E800892F807609F0B7C08B85811177
:100EC00005C01092F1001092F100C3C0813009F406
:100ED000C0C0833009F4BDC0853049F48091E8007A
:100EE00080FFFCCF8C8580688093E300B2C08630A1
:100EF00009F073C02D85E888F988223071F580E00B
:100F000090E02A8B0E9499060E94110799E08E01B9
:100F10000F5F1F4FF801392F11923A95E9F7998326
:100F20002A892A8391E09E8390E898879AEF99878F
:100F30002091890130918A01275F3F4F3C832B83A9
:100F40008D83C7010E94990649E050E0B80180E016
:100F50000E94A4060E9411077CC0C7012A8B0E9430
:100F600099062A89223241F482E290E00E94FE082A
:100F7000892B09F06EC071C0213071F4888999897C
:100F8000089719F481E08093860180918601882377
:100F900089F069E671E016C0233009F05EC08C85E7
:100FA000882359F0823061F0813009F056C06DE835
:100FB00071E008C06BE771E005C067EC71E002C04A
:100FC00065EA71E06115710509F447C0FB014491C0
:100FD00050E080E80E94A4063CC0873009F43DC080
:100FE000883021F481E08093F10033C0893089F5A5
:100FF000937099F5E5E6F1E081E021E096E38093D6
:10100000E9002093EB0034913093EC009093ED00D5
:101010008F5F3196853099F78EE78093EA001092C2
:10102000EA008C8580938B0114C0888999890E947D
:1010300099068E85811105C0CE010A960E94E203B1
:1010400006C0823051F4CE010A960E9426098823F8
:1010500021F08EEF8093E80003C081E28093EB00E3
:1010600062960FB6F894DEBF0FBECDBFDF91CF9171
:10107000FF91EF91BF91AF919F918F917F916F9170
:101080005F914F913F912F911F910F91FF90EF90A2
:101090000F900FBE0F901F9018958093E9008091DC
:1010A000F200882319F08AE38093E80008951F92E4
:1010B0000F920FB60F9211242F933F934F935F938C
:1010C0006F937F938F939F93AF93BF93EF93FF9310
:1010D0008091E1001092E10083FF0FC01092E900BF
:1010E00091E09093EB001092EC0092E39093ED006E
:1010F00010928B0198E09093F00082FF26C083E06D
:101100000E944D0882E00E947E05882321F08AE239
:1011100091E00E94B10380918D01882339F0809184
:101120008D01815080938D01882361F080918C0125
:10113000882359F080918C01815080938C01882301
:1011400019F003C05D9AF2CF289AFF91EF91BF91F9
:10115000AF919F918F917F916F915F914F913F914F
:101160002F910F900FBE0F901F90189510928B012A
:1011700081E08093D70080EA8093D80082E189BD26
:1011800009B400FEFDCF61E070E080E090E00E94D5
:10119000C50480E98093D8008CE08093E20010922F
:1011A000E000559A209A0895FF920F931F93CF93D2
:1011B000DF93EC01F62EE881F9810480F581E02DC2
:1011C00009958C01E881F9810680F781E02D6F2D6A
:1011D000CE01099598013327C901DF91CF911F9165
:1011E0000F91FF900895FC0120812F5F208349E13A
:1011F00050E06BE472E080E80C94A40645E650E011
:1012000064E672E080E80C94A406EF92FF920F93DC
:101210001F93CF93DF931F92CDB7DEB789838B01E6
:101220007A0141E050E0BE016F5F7F4F84E00E9491
:101230000906A701B80184E40E9409060F90DF9116
:10124000CF911F910F91FF90EF900895FC01918134
:101250008081813A31F481E0913091F0933091F0C6
:1012600010C0813271F49B3021F482818093090196
:1012700005C09A3031F482818093080181E008959D
:10128000089580E0089548E050E082E00C9405095C
:10129000FC0116821782108611861286138614822C
:1012A000BC016C5F7F4F0C944309E62F683810F047
:1012B000E85824C0F0E067FF12C0E058F10921E0CF
:1012C00030E001C0220FEA95EAF72095DC01149680
:1012D0003C911497322314963C93E0E00FC0E55301
:1012E000FE4FE491EE2329F1E7FF08C0DC011496DC
:1012F0002C9114972D7F14962C93EF7720E030E0FB
:10130000EE2351F0DC01A20FB31F16964C911697F5
:101310004E1302C016961C922F5F3F4F26303105A8
:1013200079F7BC016C5F7F4F0E94430921E030E0F8
:1013300002C020E030E0C9010895CF93DF93DC01C3
:10134000E62F683810F0E85824C0F0E067FF11C0BD
:10135000E058F10981E090E001C0880FEA95EAF7D2
:1013600014969C911497982B14969C931497E0E0F4
:1013700010C0E553FE4FE491E11101C040C0E7FF0A
:1013800008C014968C911497826014968C931497CD
:10139000EF7716968C9116978E1741F117968C91D0
:1013A00017978E1719F118968C9118978E17F1F0E0
:1013B00019968C9119978E17C9F01A968C911A97D5
:1013C0008E17A1F01B968C911B978E1779F080E0F9
:1013D00090E0ED01C80FD91F2E81211102C0EE83CC
:1013E00005C0019686309105A1F709C0BD016C5F6B
:1013F0007F4FCD010E94430921E030E008C081E029
:1014000090E013969C938E93129720E030E0C901F0
:10141000DF91CF91089510929A011092910110924C
:10142000900180E291E090938F0180938E01089566
:10143000F8940C94210AEE0FFF1F0590F491E02D13
:061440000994F894FFCFAF
:1014460000E100000000000001010000000086032A
:1014560041053B0361034903AE03B10300000000ED
:0A146600D40841059D095509480905
:00000001FF
