:100000000C9460010C9488010C9488010C94880174
:100010000C9488010C9488010C9488010C9488013C
:100020000C9488010C9488010C9492080C9460073D
:100030000C9488010C9488010C9488010C9488011C
:100040000C9488010C9488010C9488010C9488010C
:100050000C9488010C9488010C9488010C94E201A2
:100060000C9488010C9488010C9488010C948801EC
:100070000C9488010C9488010C9488010C948801DC
:100080000C9488010C9488010C9488010C948801CC
:100090000C9488010C9488010C9488010C948801BC
:1000A0000C9488010C9488010C94880100000002D3
:1000B00000080E0000030401000B00000408020108
:1000C00010408040102040804080080204018040A1
:1000D0002010020110801020404004040404040396
:1000E00004050202020204030202020206060606D8
:1000F0000606040402020204000000002500280095
:100100002B002E00310000000000240027002A00F0
:100110002D003000080B000202020100090400005B
:100120000102020000052400100105240101010460
:10013000240206052406000107058103100040097A
:10014000040100020A000000070502024000000747
:1001500005830240000000C18081C112010002023B
:10016000000040412336800001010200011201001D
:100170000200000040412336800001010200011806
:1001800003410072006400750069006E006F00207A
:10019000004C004C004300220341007200640075D3
:1001A0000069006E006F0020004C0065006F006E5B
:1001B000006100720064006F000403090400000085
:1001C00000000000002A2B280000000000000000B2
:1001D000000000000000000000000000002C9EB4A1
:1001E000A0A1A2A434A6A7A5AE362D3738271E1F7E
:1001F00020212223242526B333B62EB7B89F848529
:10020000868788898A8B8C8D8E8F90919293949516
:10021000969798999A9B9C9D2F3130A3AD350405F4
:10022000060708090A0B0C0D0E0F101112131415F6
:10023000161718191A1B1C1DAFB1B0B5000904021E
:1002400000010300000009210101000122650007EF
:1002500005840340000105010902A1010901A10073
:10026000850105091901290315002501950375016B
:1002700081029501750581030501093009310938AD
:100280001581257F750895038106C0C00501090603
:10029000A1018502050719E029E71500250175016F
:1002A000950881029501750881039506750815006A
:1002B00025650507190029658100C0006505470A05
:1002C00011241FBECFEFDAE0DEBFCDBF11E0A0E00A
:1002D000B1E0EEEBF4E102C005900D92AA32B10755
:1002E000D9F711E0AAE2B1E001C01D92AB39B10724
:1002F000E1F712E0C0ECD2E004C02297FE010E94B8
:10030000590ACC3BD107C9F70E945D040C94540AEA
:100310000C940000CF9360E875E283E391E00E94C3
:10032000640561E082E10E94EE0361E083E10E94E6
:10033000EE0361E084E10E94EE0361E085E10E944A
:10034000EE0361E086E10E94EE0361E087E10E9436
:10035000EE03C2E061E08C2F0E94EE03CF5FCE304F
:10036000C9F7CF910895CF936FEF70E082E10E94BB
:10037000DC026FEF70E083E10E94DC026FEF70E05F
:1003800084E10E94DC026FEF70E085E10E94DC02F4
:100390006FEF70E086E10E94DC026FEF70E087E1B2
:1003A0000E94DC02C2E061E08C2F0E94260461E022
:1003B00070E080E090E00E945602CF5FCE3099F767
:1003C000CF9108951F920F920FB60F9211242F9381
:1003D0003F938F939F93AF93BF9380912A01909106
:1003E0002B01A0912C01B0912D0130913201232FCE
:1003F0002D5F2D3720F40196A11DB11D05C0232FBF
:100400002A570296A11DB11D2093320180932A0123
:1004100090932B01A0932C01B0932D0180912E017C
:1004200090912F01A0913001B09131010196A11D51
:10043000B11D80932E0190932F01A0933001B093B2
:100440003101BF91AF919F918F913F912F910F906B
:100450000FBE0F901F9018950F931F939FB7F8949E
:1004600000912E0110912F01209130013091310126
:1004700086B5A89B06C08F3F21F00F5F1F4F2F4FFF
:100480003F4F9FBF322F212F102F0027080F111D24
:10049000211D311D42E0000F111F221F331F4A95FD
:1004A000D1F7B801C9011F910F910895CF92DF9242
:1004B000EF92FF92CF93DF936B017C010E942C029D
:1004C000EB010EC00E942C026C1B7D0B683E73403A
:1004D00038F081E0C81AD108E108F108C851DC4FB2
:1004E000C114D104E104F10469F7DF91CF91FF90C9
:1004F000EF90DF90CF900895789484B5826084BDAA
:1005000084B5816084BD85B5826085BD85B5816017
:1005100085BDEEE6F0E0808181608083E1E8F0E077
:100520001082808182608083808181608083E0E8A6
:10053000F0E0808181608083E1EBF0E08081846085
:100540008083E0EBF0E0808181608083E1E9F0E08E
:10055000808182608083808181608083E0E9F0E037
:10056000808181608083E1ECF0E080818460808321
:10057000808182608083808181608083E3ECF0E011
:10058000808181608083E0ECF0E080818260808304
:10059000E2ECF0E0808181608083EAE7F0E0808136
:1005A0008460808380818260808380818160808399
:1005B00080818068808308951F93CF93DF93182FE5
:1005C000EB0161E00E94EE03209711F460E004C0AB
:1005D000CF3FD10539F461E0812FDF91CF911F9199
:1005E0000C942604E12FF0E0E455FF4FE491E7304E
:1005F00009F449C078F4E33051F130F4E130E9F026
:10060000E23009F088C01EC0E43059F1E63009F04C
:1006100082C031C0EA3009F452C030F4E830D9F178
:10062000E93009F078C041C0EC3009F45FC008F44B
:1006300050C0EE3009F06FC061C084B5806884BDE1
:10064000C7BD6EC084B5806284BDC8BD69C08091DD
:100650008000806880938000D0938900C0938800D8
:100660005FC080918000806280938000D0938B0077
:10067000C0938A0055C08091B00080688093B0001C
:10068000C093B3004DC08091B00080628093B000F1
:10069000C093B40045C08091900080688093900022
:1006A000D0939900C09398003BC0809190008062E5
:1006B00080939000D0939B00C0939A0031C08091AA
:1006C0009000886080939000D0939D00C0939C0020
:1006D00027C08091C00080688093C0008091C000D6
:1006E0008F7B8093C000C093CF001AC08091C00060
:1006F00080628093C000C093D00012C08091C2007D
:1007000088608093C2008091C2008B7F8093C2007A
:10071000C093D20005C0C038D1050CF05CCF56CFD5
:10072000DF91CF911F9108958730A1F178F4833044
:10073000E1F030F4813019F1823009F04EC022C06E
:100740008430B9F0863009F048C020C08A3081F189
:1007500030F4883029F1893009F03FC025C08C3051
:1007600089F160F18E30C9F533C0809180008F77B8
:1007700003C0809180008F7D80938000089584B5B0
:100780008F7702C084B58F7D84BD08958091B000BD
:100790008F7703C08091B0008F7D8093B000089563
:1007A000809190008F7707C0809190008F7D03C06B
:1007B00080919000877F8093900008958091C00081
:1007C0008F7703C08091C0008F7D8093C000089513
:1007D0008091C200877F8093C2000895CF93DF93FA
:1007E00090E0FC01E454FF4F4491FC01E652FF4FBE
:1007F0008491882341F190E0880F991FFC01EA5F02
:10080000FE4F25913491D90188509F4FFC0185916D
:100810009491C82FD92F9FB7F8948C91611106C07D
:10082000409584238C938881842308C0623041F4EE
:10083000242F209582238C938881842B888302C067
:10084000842B8C939FBFDF91CF9108950F931F93BB
:10085000CF93DF931F92CDB7DEB7282F30E0F90199
:10086000E455FF4F8491F901E454FF4F1491F901CD
:10087000E652FF4F04910023D1F0882321F06983D1
:100880000E9494036981E02FF0E0EE0FFF1FE85013
:10089000FF4F85919491DC019FB7F8948C91611181
:1008A00003C01095812301C0812B8C939FBF0F90B3
:1008B000DF91CF911F910F9108950E947C0285E8EE
:1008C00091E00E94F2080E948A01C0E0D0E00E94FC
:1008D000B3012097E1F30E940000F9CF209181013C
:1008E000309182018091830190918401281B390B02
:1008F0002F733327C901089520918101309182011E
:1009000080918301909184012817390749F0E09183
:100910008301F0918401EF5BFE4F208130E002C043
:100920002FEF3FEFC901089520918101309182019D
:10093000809183019091840128173907B1F0E091EB
:100940008301F0918401EF5BFE4F80812091830150
:10095000309184012F5F3F4F2F73332730938401F1
:1009600020938301282F30E002C02FEF3FEFC90111
:1009700008950F931F93CF93DF931F92CDB7DEB7E8
:100980008C01698380910701882369F041E050E080
:10099000BE016F5F7F4F83E00E9444061816190660
:1009A00014F49C0107C081E090E0F80193838283F6
:1009B00020E030E0C9010F90DF91CF911F910F919E
:1009C000089583E00C94880882E00E94120620912A
:1009D0008101309182012F5F3F4F2F733327409168
:1009E0008301509184012417350759F0E09181016A
:1009F000F0918201EF5BFE4F808330938201209360
:100A000081010895FC0120812E5F208342E450E0A3
:100A100064E171E080E80C94DF06FC018181908143
:100A2000913A59F4813209F04BC047E050E060E060
:100A300071E080E00E94DF0645C0913209F040C0BD
:100A4000803239F467E070E080E091E00E94320784
:100A500039C0823209F034C08281809307018091CD
:100A6000000190910101A0910201B0910301803B2E
:100A70009440A105B10531F58091070180FD12C0B8
:100A800087E797E790930108809300082BE088E1BF
:100A900090E00FB6F894A895809360000FBE209365
:100AA000600010C088E10FB6F89480936000109247
:100AB00060000FBEA895109201081092000802C0B5
:100AC00080E0089581E00895089510923601109213
:100AD000350188EE93E0A0E0B0E080933701909379
:100AE0003801A0933901B0933A018EE091E09093E0
:100AF0003401809333010895CF92DF92EF92FF92F9
:100B00000F931F93CF93DF936C01EB017A01E60EF5
:100B1000F71E00E010E00BC06991D601ED91FC9149
:100B20000190F081E02DC6010995080F191FCE151F
:100B3000DF0591F7C801DF91CF911F910F91FF90D1
:100B4000EF90DF90CF90089505C02091F100FC0157
:100B50002193CF016150C8F7289884E680938C01D7
:100B600008952FB7FC012083F89467706093E90023
:100B70000895CF93DF931F92CDB7DEB7682FCE01D4
:100B800001960E94B1058091F20099819FBF0F905C
:100B9000DF91CF910895FF920F931F93CF93DF932F
:100BA00000D0CDB7DEB7F62E8A0190918B01992344
:100BB000A9F057FF16C012C0289880938C0190911D
:100BC000F1009193FE12F8CF4115510521F080916B
:100BD000F2008823D1F089818FBF1BC04FEF5FEFF8
:100BE00018C0682FCE0101967A830E94B1058091CA
:100BF000F20090E0A8017A81801791070CF4AC0113
:100C0000EF2DF72FF40E84E6DDCF8BE68093E8001E
:100C1000E2CFCA010F900F90DF91CF911F910F91FA
:100C2000FF900895CF93DF931F92CDB7DEB741E0D9
:100C300050E0BE016F5F7F4F0E94CB05019719F412
:100C4000298130E002C02FEF3FEFC9010F90DF9103
:100C5000CF910895CF93DF931F92CDB7DEB7682F62
:100C6000CE0101960E94B1058091E80085FF05C084
:100C70009091F20080E4891B01C080E099819FBFC0
:100C80000F90DF91CF9108956F927F928F929F92F4
:100C9000AF92BF92CF92DF92EF92FF920F931F938A
:100CA000CF93DF931F92CDB7DEB7782EC42EB52E2B
:100CB00080918B0181114CC02FEF3FEF64C0872DD5
:100CC0000E942A06682E811109C0DA94A9F361E016
:100CD00070E080E090E00E94560247C0282F30E08C
:100CE000021713070CF4602E06191109672DCE01A7
:100CF00001960E94B105992041F002C01092F100C6
:100D00006A948FEF6812FACF17C0862D77FC02C065
:100D1000F7010EC0970106C0F9012F5F3F4FE49124
:100D2000E093F1008150C0F705C091919093F100DC
:100D30008150D8F7E60CF11C8091E80085FF20C0B7
:100D40000115110511F481101BC089818FBF0DC0E1
:100D50007B01042F152F8AEFD82E90E2992E972031
:100D60002AE3A22E30E4832E87200115110509F015
:100D7000A6CF5D9884E680938D012C2D3B2D03C07A
:100D8000A092E800E2CFC9010F90DF91CF911F91AF
:100D90000F91FF90EF90DF90CF90BF90AF909F901A
:100DA0008F907F906F9008951092E90010928A01C1
:100DB0001092890190938801809387010895FF9292
:100DC0000F931F93CF93DF93C42FD52FDB0160E0E8
:100DD00070E0EEEFFE2E38C09D012F5F3F4F87FF82
:100DE00004C0FD01D901E49102C0EC91D901009148
:100DF000890110918A0120918701309188010217A1
:100E00001307B4F49091E8009570E1F39091E80035
:100E100092FD1FC0E093F1002091890130918A0179
:100E20002F5F3F4F2F733327232B11F4F092E800ED
:100E30002091890130918A012F5F3F4F30938A01C1
:100E4000209389016F5F7F4F6C177D0729F69A0108
:100E500002C02FEF3FEFC901DF91CF911F910F919A
:100E6000FF9008951F93CF93DF931F92CDB7DEB706
:100E7000162F2091E80022FFFCCF612F79830E947A
:100E8000A4058BEF8093E800812F7981972F0F9035
:100E9000DF91CF911F910895CF93DF931F92CDB72C
:100EA000DEB71982CE0101960E940205CE0101969D
:100EB0000E942F09898190E00F90DF91CF910895D2
:100EC0001F920F920FB60F921124EF92FF920F9381
:100ED0001F932F933F934F935F936F937F938F93C2
:100EE0009F93AF93BF93EF93FF93CF93DF93CDB7D0
:100EF000DEB76297DEBFCDBF1092E9008091E800B7
:100F000083FFE9C068E0CE010A960E94A40582EF43
:100F10008093E8009A8597FF05C08091E80080FFE4
:100F2000FCCF03C08EEF8093E800892F807609F014
:100F3000B7C08B85811105C01092F1001092F100AD
:100F4000C3C0813009F4C0C0833009F4BDC085300E
:100F500049F48091E80080FFFCCF8C858068809305
:100F6000E300B2C0863009F073C02D85E888F988A7
:100F7000223071F580E090E02A8B0E94D4060E9416
:100F80004C0799E08E010F5F1F4FF801392F119226
:100F90003A95E9F799832A892A8391E09E8390E81C
:100FA00098879AEF99872091890130918A01275F6C
:100FB0003F4F3C832B838D83C7010E94D40649E0B9
:100FC00050E0B80180E00E94DF060E944C077CC020
:100FD000C7012A8B0E94D4062A89223241F482E278
:100FE00090E00E943A09892B09F06EC071C021304F
:100FF00071F488899989089719F481E080938601B2
:1010000080918601882389F06BE571E016C023305A
:1010100009F05EC08C85882359F0823061F0813000
:1010200009F056C06FE771E008C06DE671E005C0D9
:1010300069EB71E002C067E971E06115710509F4BF
:1010400047C0FB01449150E080E80E94DF063CC0AD
:10105000873009F43DC0883021F481E08093F100AD
:1010600033C0893089F5937099F5E7E5F1E081E0C7
:1010700021E096E38093E9002093EB0034913093D4
:10108000EC009093ED008F5F3196853099F78EE7F5
:101090008093EA001092EA008C8580938B0114C043
:1010A000888999890E94D4068E85811105C0CE0158
:1010B0000A960E940D0506C0823051F4CE010A96B0
:1010C0000E946209882321F08EEF8093E80003C01C
:1010D00081E28093EB0062960FB6F894DEBF0FBEFC
:1010E000CDBFDF91CF91FF91EF91BF91AF919F91D4
:1010F0008F917F916F915F914F913F912F911F91B0
:101100000F91FF90EF900F900FBE0F901F901895CA
:101110008093E9008091F200882319F08AE380939C
:10112000E80008951F920F920FB60F9211242F938B
:101130003F934F935F936F937F938F939F93AF935F
:10114000BF93EF93FF938091E1001092E10083FF42
:101150000FC01092E90091E09093EB001092EC0028
:1011600092E39093ED0010928B0198E09093F00041
:1011700082FF27C083E00E94880804C083E391E0D7
:101180000E94E40482E00E94B9058111F7CF8091AA
:101190008D01882339F080918D01815080938D01DC
:1011A000882361F080918C01882359F080918C0113
:1011B000815080938C01882319F003C05D9AF2CF8F
:1011C000289AFF91EF91BF91AF919F918F917F915D
:1011D0006F915F914F913F912F910F900FBE0F90A4
:1011E0001F90189510928B0181E08093D70080EAC0
:1011F0008093D80082E189BD09B400FEFDCF61E093
:1012000070E080E090E00E94560280E98093D80070
:101210008CE08093E2001092E000559A209A0895A5
:10122000FF920F931F93CF93DF93EC01F62EE8818B
:10123000F9810480F581E02D09958C01E881F9811F
:101240000680F781E02D6F2DCE0109959801332797
:10125000C901DF91CF911F910F91FF900895FC017B
:1012600020812F5F208349E150E06DE372E080E848
:101270000C94DF0645E650E066E572E080E80C94E9
:10128000DF06EF92FF920F931F93CF93DF931F928E
:10129000CDB7DEB789838B017A0141E050E0BE0112
:1012A0006F5F7F4F84E00E944406A701B80184E489
:1012B0000E9444060F90DF91CF911F910F91FF90F4
:1012C000EF900895FC0191818081813A31F481E0B1
:1012D000913091F0933091F010C0813271F49B30D5
:1012E00021F482818093090105C09A3031F4828112
:1012F0008093080181E00895089580E0089548E012
:1013000050E082E00C944109FC011682178210869D
:101310001186128613861482BC016C5F7F4F0C9479
:101320007F09E62F683810F0E85824C0F0E067FF26
:1013300012C0E058F10921E030E001C0220FEA9527
:10134000EAF72095DC0114963C9114973223149609
:101350003C93E0E00FC0E354FE4FE491EE2329F10B
:10136000E7FF08C0DC0114962C9114972D7F14968A
:101370002C93EF7720E030E0EE2351F0DC01A20F58
:10138000B31F16964C9116974E1302C016961C92D8
:101390002F5F3F4F2630310579F7BC016C5F7F4FDF
:1013A0000E947F0921E030E002C020E030E0C90166
:1013B0000895CF93DF93DC01E62F683810F0E858EA
:1013C00024C0F0E067FF11C0E058F10981E090E02F
:1013D00001C0880FEA95EAF714969C911497982B10
:1013E00014969C931497E0E010C0E354FE4FE491F0
:1013F000E11101C040C0E7FF08C014968C9114971A
:10140000826014968C931497EF7716968C911697AA
:101410008E1741F117968C9117978E1719F1189620
:101420008C9118978E17F1F019968C9119978E1749
:10143000C9F01A968C911A978E17A1F01B968C9171
:101440001B978E1779F080E090E0ED01C80FD91F4F
:101450002E81211102C0EE8305C0019686309105D0
:10146000A1F709C0BD016C5F7F4FCD010E947F09CC
:1014700021E030E008C081E090E013969C938E93C9
:10148000129720E030E0C901DF91CF9108951092CA
:101490009A01109291011092900180E291E0909354
:1014A0008F0180938E010895F8940C945D0AEE0FDD
:0E14B000FF1F0590F491E02D0994F894FFCFF2
:1014BE0000E1000000000000010100000000B9047E
:1014CE007C056E0494047C04E104E4040000000036
:0A14DE0010097C05D9099109840961
:00000001FF
