:100000000C9460010C9488010C9488010C94880174
:100010000C9488010C9488010C9488010C9488013C
:100020000C9488010C9488010C9476080C94440775
:100030000C9488010C9488010C9488010C9488011C
:100040000C9488010C9488010C9488010C9488010C
:100050000C9488010C9488010C9488010C9466041B
:100060000C9488010C9488010C9488010C948801EC
:100070000C9488010C9488010C9488010C948801DC
:100080000C9488010C9488010C9488010C948801CC
:100090000C9488010C9488010C9488010C948801BC
:1000A0000C9488010C9488010C94880100000002D3
:1000B00000080E0000030401000B00000408020108
:1000C00010408040102040804080080204018040A1
:1000D0002010020110801020404004040404040396
:1000E00004050202020204030202020206060606D8
:1000F0000606040402020204000000002500280095
:100100002B002E00310000000000240027002A00F0
:100110002D003000080B000202020100090400005B
:100120000102020000052400100105240101010460
:10013000240206052406000107058103100040097A
:10014000040100020A000000070502024000000747
:1001500005830240000000C18081C112010002023B
:10016000000040412336800001010200011201001D
:100170000200000040412336800001010200011806
:1001800003410072006400750069006E006F00207A
:10019000004C004C004300220341007200640075D3
:1001A0000069006E006F0020004C0065006F006E5B
:1001B000006100720064006F000403090400000085
:1001C00000000000002A2B280000000000000000B2
:1001D000000000000000000000000000002C9EB4A1
:1001E000A0A1A2A434A6A7A5AE362D3738271E1F7E
:1001F00020212223242526B333B62EB7B89F848529
:10020000868788898A8B8C8D8E8F90919293949516
:10021000969798999A9B9C9D2F3130A3AD350405F4
:10022000060708090A0B0C0D0E0F101112131415F6
:10023000161718191A1B1C1DAFB1B0B5000904021E
:1002400000010300000009210101000122650007EF
:1002500005840340000105010902A1010901A10073
:10026000850105091901290315002501950375016B
:1002700081029501750581030501093009310938AD
:100280001581257F750895038106C0C00501090603
:10029000A1018502050719E029E71500250175016F
:1002A000950881029501750881039506750815006A
:1002B00025650507190029658100C0004F042B0A38
:1002C00011241FBECFEFDAE0DEBFCDBF11E0A0E00A
:1002D000B1E0E6E8F4E102C005900D92AA32B10760
:1002E000D9F711E0AAE2B1E001C01D92AB39B10724
:1002F000E1F712E0C0ECD2E004C02297FE010E94B8
:100300003D0ACC3BD107C9F70E9447030C94380A39
:100310000C94000060E875E28AE291E00E944E04CD
:1003200061E082E10E94D80261E083E10E94D8028C
:1003300061E084E10E94D80261E085E10E94D80278
:1003400061E086E10E94D80261E087E10C94D80266
:100350006FEF70E082E10E94C6016FEF70E083E111
:100360000E94C6016FEF70E084E10E94C6016FEF4A
:1003700070E085E10E94C6016FEF70E086E10E94A7
:10038000C6016FEF70E087E10C94C6011F93CF9315
:10039000DF93182FEB0161E00E94D802209711F43F
:1003A00060E004C0CF3FD10539F461E0812FDF91D7
:1003B000CF911F910C941003E12FF0E0E455FF4F13
:1003C000E491E73009F449C078F4E33051F130F4B6
:1003D000E130E9F0E23009F088C01EC0E43059F1A4
:1003E000E63009F082C031C0EA3009F452C030F47E
:1003F000E830D9F1E93009F078C041C0EC3009F4B7
:100400005FC008F450C0EE3009F06FC061C084B521
:10041000806884BDC7BD6EC084B5806284BDC8BD20
:1004200069C080918000806880938000D0938900AB
:10043000C09388005FC080918000806280938000BC
:10044000D0938B00C0938A0055C08091B000806823
:100450008093B000C093B3004DC08091B000806223
:100460008093B000C093B40045C080919000806834
:1004700080939000D0939900C09398003BC08091E6
:100480009000806280939000D0939B00C0939A006C
:1004900031C080919000886080939000D0939D003F
:1004A000C0939C0027C08091C00080688093C000EA
:1004B0008091C0008F7B8093C000C093CF001AC092
:1004C0008091C00080628093C000C093D00012C0B1
:1004D0008091C20088608093C2008091C2008B7FAF
:1004E0008093C200C093D20005C0C038D1050CF083
:1004F0005CCF56CFDF91CF911F9108958730A1F146
:1005000078F48330E1F030F4813019F1823009F071
:100510004EC022C08430B9F0863009F048C020C0F7
:100520008A3081F130F4883029F1893009F03FC0F8
:1005300025C08C3089F160F18E30C9F533C08091CF
:1005400080008F7703C0809180008F7D8093800032
:10055000089584B58F7702C084B58F7D84BD0895DA
:100560008091B0008F7703C08091B0008F7D809321
:10057000B0000895809190008F7707C0809190001F
:100580008F7D03C080919000877F809390000895B5
:100590008091C0008F7703C08091C0008F7D8093D1
:1005A000C00008958091C200877F8093C2000895A3
:1005B000CF93DF9390E0FC01E454FF4F4491FC01A2
:1005C000E652FF4F8491882341F190E0880F991FF4
:1005D000FC01EA5FFE4F25913491D90188509F4F6D
:1005E000FC0185919491C82FD92F9FB7F8948C91D5
:1005F000611106C0409584238C938881842308C0B0
:10060000623041F4242F209582238C938881842B9F
:10061000888302C0842B8C939FBFDF91CF91089574
:100620000F931F93CF93DF931F92CDB7DEB7282F81
:1006300030E0F901E455FF4F8491F901E454FF4F94
:100640001491F901E652FF4F04910023D1F0882361
:1006500021F069830E947E026981E02FF0E0EE0FB5
:10066000FF1FE850FF4F85919491DC019FB7F894EC
:100670008C91611103C01095812301C0812B8C9353
:100680009FBF0F90DF91CF911F910F9108950E940E
:10069000000585E891E00E94D6080E948A01C0E02A
:1006A000D0E00E94A8012097E1F30E940000F9CF5A
:1006B000209178013091790180917A0190917B01AC
:1006C000281B390B2F733327C90108952091780116
:1006D0003091790180917A0190917B012817390737
:1006E00049F0E0917A01F0917B01E85CFE4F2081B6
:1006F00030E002C02FEF3FEFC9010895209178014B
:100700003091790180917A0190917B012817390706
:10071000B1F0E0917A01F0917B01E85CFE4F8081BD
:1007200020917A0130917B012F5F3F4F2F73332748
:1007300030937B0120937A01282F30E002C02FEF05
:100740003FEFC90108950F931F93CF93DF931F923B
:10075000CDB7DEB78C01698380910701882369F0EA
:1007600041E050E0BE016F5F7F4F83E00E942806AA
:100770001816190614F49C0107C081E090E0F801F6
:100780009383828320E030E0C9010F90DF91CF9105
:100790001F910F91089583E00C946C0882E00E94F1
:1007A000F60520917801309179012F5F3F4F2F732B
:1007B000332740917A0150917B012417350759F076
:1007C000E0917801F0917901E85CFE4F80833093ED
:1007D0007901209378010895FC0120812E5F208308
:1007E00042E450E064E171E080E80C94C306FC014F
:1007F00081819081913A59F4813209F04BC047E0F0
:1008000050E060E071E080E00E94C30645C0913294
:1008100009F040C0803239F467E070E080E091E098
:100820000E94160739C0823209F034C08281809359
:1008300007018091000190910101A0910201B09106
:100840000301803B9440A105B10531F5809107017A
:1008500080FD12C087E797E7909301088093000816
:100860002BE088E190E00FB6F894A89580936000A3
:100870000FBE2093600010C088E10FB6F8948093FB
:100880006000109260000FBEA895109201081092AF
:10089000000802C080E0089581E008950895109254
:1008A0002D0110922C0188EE93E0A0E0B0E080933F
:1008B0002E0190932F01A0933001B09331018EE06F
:1008C00091E090932B0180932A0108951F920F923B
:1008D0000FB60F9211242F933F938F939F93AF9353
:1008E000BF9380917C0190917D01A0917E01B09198
:1008F0007F0130918401232F2D5F2D3720F4019645
:10090000A11DB11D05C0232F2A570296A11DB11D9F
:100910002093840180937C0190937D01A0937E01BC
:10092000B0937F018091800190918101A09182011B
:10093000B09183010196A11DB11D80938001909318
:100940008101A0938201B0938301BF91AF919F91E8
:100950008F913F912F910F900FBE0F901F90189580
:100960000F931F939FB7F89400918001109181011C
:10097000209182013091830186B5A89B06C08F3FEC
:1009800021F00F5F1F4F2F4F3F4F9FBF322F212F5F
:10099000102F0027080F111D211D311D42E0000FEF
:1009A000111F221F331F4A95D1F7B801C9011F91AA
:1009B0000F910895CF92DF92EF92FF92CF93DF9342
:1009C0006B017C010E94B004EB010EC00E94B004D8
:1009D0006C1B7D0B683E734038F081E0C81AD1086B
:1009E000E108F108C851DC4FC114D104E104F1045D
:1009F00069F7DF91CF91FF90EF90DF90CF9008954E
:100A0000789484B5826084BD84B5816084BD85B5E9
:100A1000826085BD85B5816085BDEEE6F0E08081B0
:100A200081608083E1E8F0E01082808182608083D1
:100A3000808181608083E0E8F0E080818160808354
:100A4000E1EBF0E0808184608083E0EBF0E0808186
:100A500081608083E1E9F0E0808182608083808131
:100A600081608083E0E9F0E0808181608083E1EC57
:100A7000F0E08081846080838081826080838081D7
:100A800081608083E3ECF0E0808181608083E0EC32
:100A9000F0E0808182608083E2ECF0E08081816020
:100AA0008083EAE7F0E080818460808380818260D7
:100AB00080838081816080838081806880830895C5
:100AC000CF92DF92EF92FF920F931F93CF93DF931A
:100AD0006C01EB017A01E60EF71E00E010E00BC09E
:100AE0006991D601ED91FC910190F081E02DC60154
:100AF0000995080F191FCE15DF0591F7C801DF9181
:100B0000CF911F910F91FF90EF90DF90CF900895BC
:100B100005C02091F100FC012193CF016150C8F77D
:100B2000289884E680938C0108952FB7FC012083D8
:100B3000F89467706093E9000895CF93DF931F9254
:100B4000CDB7DEB7682FCE0101960E949505809142
:100B5000F20099819FBF0F90DF91CF910895FF928E
:100B60000F931F93CF93DF9300D0CDB7DEB7F62E50
:100B70008A0190918B019923A9F057FF16C012C0EA
:100B8000289880938C019091F1009193FE12F8CFF8
:100B90004115510521F08091F2008823D1F089811F
:100BA0008FBF1BC04FEF5FEF18C0682FCE010196BB
:100BB0007A830E9495058091F20090E0A8017A81E5
:100BC000801791070CF4AC01EF2DF72FF40E84E69B
:100BD000DDCF8BE68093E800E2CFCA010F900F9043
:100BE000DF91CF911F910F91FF900895CF93DF93E5
:100BF0001F92CDB7DEB741E050E0BE016F5F7F4F7F
:100C00000E94AF05019719F4298130E002C02FEF4F
:100C10003FEFC9010F90DF91CF910895CF93DF93FC
:100C20001F92CDB7DEB7682FCE0101960E949505C1
:100C30008091E80085FF05C09091F20080E4891B57
:100C400001C080E099819FBF0F90DF91CF910895FF
:100C50006F927F928F929F92AF92BF92CF92DF92CC
:100C6000EF92FF920F931F93CF93DF931F92CDB715
:100C7000DEB7782EC42EB52E80918B0181114CC029
:100C80002FEF3FEF64C0872D0E940E06682E811162
:100C900009C0DA94A9F361E070E080E090E00E947E
:100CA000DA0447C0282F30E0021713070CF4602E37
:100CB00006191109672DCE0101960E94950599200C
:100CC00041F002C01092F1006A948FEF6812FACFDF
:100CD00017C0862D77FC02C0F7010EC0970106C031
:100CE000F9012F5F3F4FE491E093F1008150C0F78D
:100CF00005C091919093F1008150D8F7E60CF11C5A
:100D00008091E80085FF20C00115110511F48110C4
:100D10001BC089818FBF0DC07B01042F152F8AEF67
:100D2000D82E90E2992E97202AE3A22E30E4832E2B
:100D300087200115110509F0A6CF5D9884E6809300
:100D40008D012C2D3B2D03C0A092E800E2CFC901FC
:100D50000F90DF91CF911F910F91FF90EF90DF9057
:100D6000CF90BF90AF909F908F907F906F9008959D
:100D70001092E90010928A011092890190938801E3
:100D8000809387010895FF920F931F93CF93DF9372
:100D9000C42FD52FDB0160E070E0EEEFFE2E38C0EF
:100DA0009D012F5F3F4F87FF04C0FD01D901E491F2
:100DB00002C0EC91D9010091890110918A01209122
:100DC00087013091880102171307B4F49091E8006D
:100DD0009570E1F39091E80092FD1FC0E093F1005F
:100DE0002091890130918A012F5F3F4F2F73332764
:100DF000232B11F4F092E8002091890130918A01AF
:100E00002F5F3F4F30938A01209389016F5F7F4F9F
:100E10006C177D0729F69A0102C02FEF3FEFC90139
:100E2000DF91CF911F910F91FF9008951F93CF9362
:100E3000DF931F92CDB7DEB7162F2091E80022FF77
:100E4000FCCF612F79830E9488058BEF8093E800A7
:100E5000812F7981972F0F90DF91CF911F91089566
:100E6000CF93DF931F92CDB7DEB71982CE010196E3
:100E70000E94EC03CE0101960E941309898190E043
:100E80000F90DF91CF9108951F920F920FB60F929E
:100E90001124EF92FF920F931F932F933F934F9341
:100EA0005F936F937F938F939F93AF93BF93EF93D2
:100EB000FF93CF93DF93CDB7DEB76297DEBFCDBF91
:100EC0001092E9008091E80083FFE9C068E0CE015C
:100ED0000A960E94880582EF8093E8009A8597FF22
:100EE00005C08091E80080FFFCCF03C08EEF8093A7
:100EF000E800892F807609F0B7C08B85811105C085
:100F00001092F1001092F100C3C0813009F4C0C00A
:100F1000833009F4BDC0853049F48091E80080FF3A
:100F2000FCCF8C8580688093E300B2C0863009F0E6
:100F300073C02D85E888F988223071F580E090E053
:100F40002A8B0E94B8060E94300799E08E010F5F3D
:100F50001F4FF801392F11923A95E9F799832A89A1
:100F60002A8391E09E8390E898879AEF9987209151
:100F7000890130918A01275F3F4F3C832B838D830A
:100F8000C7010E94B80649E050E0B80180E00E9425
:100F9000C3060E9430077CC0C7012A8B0E94B80696
:100FA0002A89223241F482E290E00E941E09892BB4
:100FB00009F06EC071C0213071F488899989089751
:100FC00019F481E08093860180918601882389F05D
:100FD0006BE571E016C0233009F05EC08C85882374
:100FE00059F0823061F0813009F056C06FE771E04E
:100FF00008C06DE671E005C069EB71E002C067E909
:1010000071E06115710509F447C0FB01449150E09E
:1010100080E80E94C3063CC0873009F43DC0883098
:1010200021F481E08093F10033C0893089F5937019
:1010300099F5E7E5F1E081E021E096E38093E900AE
:101040002093EB0034913093EC009093ED008F5F90
:101050003196853099F78EE78093EA001092EA0086
:101060008C8580938B0114C0888999890E94B80669
:101070008E85811105C0CE010A960E94F70306C035
:10108000823051F4CE010A960E944609882321F04D
:101090008EEF8093E80003C081E28093EB006296BC
:1010A0000FB6F894DEBF0FBECDBFDF91CF91FF9199
:1010B000EF91BF91AF919F918F917F916F915F91D0
:1010C0004F913F912F911F910F91FF90EF900F90B3
:1010D0000FBE0F901F9018958093E9008091F20049
:1010E000882319F08AE38093E80008951F920F92F5
:1010F0000FB60F9211242F933F934F935F936F93EB
:101100007F938F939F93AF93BF93EF93FF938091C0
:10111000E1001092E10083FF0FC01092E90091E01E
:101120009093EB001092EC0092E39093ED001092FC
:101130008B0198E09093F00082FF27C083E00E942B
:101140006C0804C08AE291E00E94CE0382E00E9413
:101150009D058111F7CF80918D01882339F0809111
:101160008D01815080938D01882361F080918C01E5
:10117000882359F080918C01815080938C018823C1
:1011800019F003C05D9AF2CF289AFF91EF91BF91B9
:10119000AF919F918F917F916F915F914F913F910F
:1011A0002F910F900FBE0F901F90189510928B01EA
:1011B00081E08093D70080EA8093D80082E189BDE6
:1011C00009B400FEFDCF61E070E080E090E00E9495
:1011D000DA0480E98093D8008CE08093E2001092DA
:1011E000E000559A209A0895FF920F931F93CF9392
:1011F000DF93EC01F62EE881F9810480F581E02D82
:1012000009958C01E881F9810680F781E02D6F2D29
:10121000CE01099598013327C901DF91CF911F9124
:101220000F91FF900895FC0120812F5F208349E1F9
:1012300050E06DE372E080E80C94C30645E650E0B0
:1012400066E572E080E80C94C306EF92FF920F937C
:101250001F93CF93DF931F92CDB7DEB789838B01A6
:101260007A0141E050E0BE016F5F7F4F84E00E9451
:101270002806A701B80184E40E9428060F90DF9198
:10128000CF911F910F91FF90EF900895FC019181F4
:101290008081813A31F481E0913091F0933091F086
:1012A00010C0813271F49B3021F482818093090156
:1012B00005C09A3031F482818093080181E008955D
:1012C000089580E0089548E050E082E00C942509FC
:1012D000FC011682178210861186128613861482EC
:1012E000BC016C5F7F4F0C946309E62F683810F0E7
:1012F000E85824C0F0E067FF12C0E058F10921E08F
:1013000030E001C0220FEA95EAF72095DC0114963F
:101310003C911497322314963C93E0E00FC0E354C1
:10132000FE4FE491EE2329F1E7FF08C0DC0114969B
:101330002C9114972D7F14962C93EF7720E030E0BA
:10134000EE2351F0DC01A20FB31F16964C911697B5
:101350004E1302C016961C922F5F3F4F2630310568
:1013600079F7BC016C5F7F4F0E94630921E030E098
:1013700002C020E030E0C9010895CF93DF93DC0183
:10138000E62F683810F0E85824C0F0E067FF11C07D
:10139000E058F10981E090E001C0880FEA95EAF792
:1013A00014969C911497982B14969C931497E0E0B4
:1013B00010C0E354FE4FE491E11101C040C0E7FFCB
:1013C00008C014968C911497826014968C9314978D
:1013D000EF7716968C9116978E1741F117968C9190
:1013E00017978E1719F118968C9118978E17F1F0A0
:1013F00019968C9119978E17C9F01A968C911A9795
:101400008E17A1F01B968C911B978E1779F080E0B8
:1014100090E0ED01C80FD91F2E81211102C0EE838B
:1014200005C0019686309105A1F709C0BD016C5F2A
:101430007F4FCD010E94630921E030E008C081E0C8
:1014400090E013969C938E93129720E030E0C901B0
:10145000DF91CF91089510929A011092910110920C
:10146000900180E291E090938F0180938E01089526
:10147000F8940C94410AEE0FFF1F0590F491E02DB3
:061480000994F894FFCF6F
:1014860000E1000000000000010100000000A303CD
:10149600600558037E036603CB03CE0300000000FD
:0A14A600F4086005BD097509680926
:00000001FF
